:020000040800F2
:10000000B8180020E1000008D70B0008D30B000847
:1000100000000000000000000000000000000000E0
:10002000000000000000000000000000010C0008BB
:100030000000000000000000D90B00081B0C0008A5
:10004000F3000008F3000008F3000008F3000008C4
:10005000F3000008F3000008F3000008D1090008CD
:10006000000000009D090008F3000008F3000008EC
:10007000F3000008F3000008F3000008000000008F
:10008000391A0008F300000800000000F30000081F
:10009000F3000008C9190008F3000008F300000885
:1000A000F3000008F3000008F3000008F300000864
:1000B000F300000800000000000000000000000045
:1000C000F300000800000000F30000080348854624
:1000D00000F0A0FB00480047A12B0008B818002042
:1000E0000448804704480047FEE7FEE7FEE7FEE7D6
:1000F000FEE7FEE71D0C0008CD000008D2B201E0CB
:100100000270401C491EFBD270470022F6E710B572
:1001100013460A4604461946FFF7F0FF204610BD75
:10012000F8B502464A40D40F42004B0052085B0823
:100130009A4202D20246084611464A0023D0C30D15
:100140004A00DDB2120EAD1A202D35DA4902012621
:10015000490AF6058A19002C00D0524220214F1B73
:100160001146B9402A411018C20D9A4221D0002CE4
:1001700017D0012D08DCDA05801AD20F8019D207BA
:10018000DBB200F048F9F8BDDA05801A012340001F
:100190001B06C01880185A428018CA0F1043490025
:1001A00007E04908C2071143DA05801A80194008A0
:1001B000801800F028F9F8BD61000122511A001BD7
:1001C000F7E70122D2075140AAE70122D2075040A7
:1001D000A6E7024670B54A40D30FDB0740002DD09A
:1001E0004A002AD0010E140E000212020919400A18
:1001F000520A8418E50104465443000A120A2E04E8
:100200005043A4194219200CC543AA18120C012509
:10021000AD03521C521912047F39240400D0521C21
:10022000104301D44000491EC2B20C06C009201878
:10023000401C4008802A02D003E0002070BD400826
:100240004000002900DA0020184370BD70B5024656
:100250004A40D50F40004A00ED07400852080028E8
:1002600014D0002A12D0C40DD30D41020120C005C4
:100270005202490A520AE41A091812187D349142AE
:1002800001D3641C00E04900002C01DA002070BD9D
:100290000023914201D3891A0343400849000028F2
:1002A000F7D100290AD0914202D10121C90705E006
:1002B000914201D2012101E00121C943E005C018AA
:1002C000401900F0A0F870BD0122D207002800DB21
:1002D000101A002900DB511A814201D80120704711
:1002E000002070470122D207002800DB101A0029E5
:1002F00000DB511A814201D3012070470020704772
:10030000C217C10F504010B54018CA0796230021EC
:1003100000F081F810BD10B500229623114600F0C0
:100320007AF810BDC20F410040020123400ADB05EC
:10033000D207090EC0187F2901DA002070479629DC
:1003400003DC9623591AC84001E096398840002AF8
:10035000F4D040427047410040020122400AD205D9
:10036000090E80187F2901DA00207047962903DCE6
:100370009622511AC8407047963988407047C20F7C
:10038000D207400040080BD0C10D0723DB01C9187C
:1003900040020905400A1143C20840071143704753
:1003A000002001467047F0B51FB40646002082B019
:1003B00005464024019100901BE0019922460F461A
:1003C000304600F068FA049A059B801A994110D3D0
:1003D00010461946224600F04EFA361A8F41019710
:1003E000224601200021009F00F045FA38184D41B7
:1003F00000902046641E0028DFDC019B00982946FF
:10040000324607B0F0BD002904DA401C490001D192
:1004100040084000704770B40024050C05D110243A
:10042000000402D1002921D01124050E01D10002BF
:100430000834050F01D10001241D850F01D1800072
:10044000A41C002801DB4000641C002908D02025E2
:100450002E1B0D46F540A14000D001212943084341
:1004600001061B1B000ADB1D02D5002070BC704773
:10047000DB05181880180029F8DA401C4900F5D16E
:1004800070BC400840007047F0B507460846584029
:1004900087B0C00F049048000E4659004008490834
:1004A000BC1A884105D2384631461E4617460B46CF
:1004B00002465800400810434CD0300D03904005D0
:1004C0005900400D490D0590401A0290402872DAFB
:1004D00018030121000B09050843019004980092BC
:1004E000002805D0019952420020884100920190D5
:1004F000029840210A1A0199009800F0BCF90546BB
:100500000C466B4607CB00F0D7F9C0197141039A2E
:100510000E0D0023D71756401A467A40164344D092
:10052000049A002A2DD0029A012A039A15DC12059A
:10053000C01A914101263605001C7141D20F059E5B
:10054000D2070093019202962A46234600F0D4F97E
:1005500007B0F0BD38463146FAE71605224A0F4685
:10056000B218C01AB74101210905001C4F410018FB
:100570007F41114618187941E20F10436D1964410B
:1005800013E0E2076D0815436408C2071443039A99
:1005900001261205C01A91413605001C7141CE0793
:1005A000400830434908C01851412A46234600F00C
:1005B00096F9CDE7FFE7049801224000C117121A0F
:1005C00000238B4104983146C417381AA141EEE745
:1005D00030B40124E407634030BC55E730B4012453
:1005E000E407614030BC4FE70000E0FFF0B51FB406
:1005F00088B00B990998002448400999C00F490018
:1006000049080991C0070B990090490049080B91CE
:1006100009990898A64608431CD00B990A980843E4
:1006200018D0099801244000420D4800410D099856
:1006300024050003000B204309900B980003000BD6
:1006400020430B9050181C4940180022019014467A
:10065000104605E0002001460DB0F0BD032801DA88
:10066000034600E003239C46C11A0AAE0AE05F007D
:1006700008ADED5B4F00F75B7D430027AA187C4176
:10068000491C5B1E6145F2DD410004AB5A52210456
:10069000120C0A43240C401C0828DFDB019802904E
:1006A0000099704601910090059B049A079906985D
:1006B00000F022F9D0E700000DFCFFFFF0B50C467A
:1006C0005C4085B0E40FE40703944C000026640806
:1006D00059009446490802460296224321D06246B8
:1006E0000A431ED06200570D4A000E032303550D26
:1006F000012402462C492405781B1B0B360B40189D
:1007000023432643614600901C46501AB44103D34C
:100710000098401C009002E0921800985B4100286D
:1007200003DA0020014605B0F0BD002001210905D3
:100730000746864611E064461D46141BB54106D3A4
:100740006546521BB341744607430C43A646CD078A
:1007500040084908284392185B4105460D43EAD1F9
:100760001046184313D06046194650407140084364
:1007700006D06046101AB34106D20122002306E0DB
:1007800000220123DB0702E00122D243531000982C
:1007900074460105381C6141029C039D00196941A2
:1007A00000F09DF8BFE70000FD0300004A000903C8
:1007B0000123090B1B0519430A4B10B5520D9A4230
:1007C00002DA0020014610BD064B34339A4203DCA6
:1007D0009A1A00F060F810BD034BD21800F04BF8E5
:1007E00010BD0000FF030000CDFBFFFF10B5002986
:1007F00004DB0124E40740428C412146002B04DB4A
:100800001C460123DB075242A341994200D190428A
:1008100010BD0000064C0125064E05E0E36807CC3C
:100820002B430C3C98471034B442F7D3FFF752FCEB
:1008300034C4000854C4000870B50446002903D02D
:1008400000202022012310E0002801D00020C04316
:10085000C046C0460DE02546D5408D4205D30D4625
:100860009540641B1D46954040191546521E002DAB
:10087000F1DC214670BD10B5202A04DB0146203A88
:100880009140002010BD914020239C1A0346E34074
:100890001943904010BD10B5202A04DB0846203AC9
:1008A000D040002110BD0B46D340D0402024A21AD6
:1008B00091400843194610BD10B5202A06DBCB171E
:1008C0000846203A1041C1170B4306E00B4613417E
:1008D000D0402024A21A91400843194610BD10B5FB
:1008E000002B08DA0024401C614192185B411A4336
:1008F00001D14008400010BDF0B51FB482B00546DC
:100900000C0003D0084604F001F902E004F0FEF800
:1009100020300246009021462846FFF7ACFF049B9A
:10092000059A04460F4618431143084314D018464D
:1009300010431BD0009840210A1A18460599FFF76A
:10094000AAFF05460E46009A05990498FFF793FF03
:10095000084305D0012004E02046394607B0F0BD29
:100960000020C11705430E432C43374300990E98CE
:100970006305401A7905E40A00220C43FD0A0A3097
:1009800002D500200146E9E70105101969410C9CD8
:100990000D9D00196941FFF7A2FFDFE780B582B026
:1009A0000020022101F080FC68B1FFE70749012027
:1009B000019008700020009001F076FB00980199EA
:1009C00001F060FCFFE702B080BDC04604000020DB
:1009D00080B5102001F0DAFD20B1FFE7024801F0F8
:1009E000E9FCFFE780BDC046C40F002010B5FFB092
:1009F0008BB0014689A8018088AA0021118087AAAE
:100A00001180869105AA118004AA1180008840F205
:100A10000111884205DBFFE789A940F20010088038
:100A2000FFE789A80088052804DCFFE789A90620DC
:100A30000880FFE7002003901121072201F0B2F99E
:100A4000039888A90880FFE788A80088032808DCA5
:100A5000FFE700F0A7F8FFE78898401C88A9088006
:100A6000F2E788A900200880FFE788A8008889A904
:100A7000098888420DDAFFE700F094F888A9098810
:100A80004A0006A98852FFE78898401C88A9088078
:100A9000EBE788A901200880FFE788A8008889A9DA
:100AA0000988884242DAFFE788A80088410006A842
:100AB000405A05A90880889887A90880FFE787A879
:100AC000018800200129029014DBFFE787A8008835
:100AD000400006A94018801E018805A80288012050
:100AE000002300939142019001DC0098019001984D
:100AF0000290FFE70298C00760B1FFE787A9088866
:100B0000430006AAD018801E0088D0528798401E45
:100B10000880D4E7059887A909884A0006A9885261
:100B2000FFE78898401C88A90880B6E789A8008854
:100B30000A21B0FBF1F104A801800088012804DC3F
:100B4000FFE704A902200880FFE7002086900498B0
:100B500088A90880FFE788A8008889A9098804AACD
:100B60001288891A88420EDAFFE788A800884100B7
:100B700006A8415A869840188690FFE78898401C3E
:100B800088A90880E7E7869889A9098804AA1288B5
:100B90005200891AB0FBF1F0869086A800887FB0D9
:100BA0000BB010BD80B582B001A9002008800120E3
:100BB00001F0ACF9FFE7022001F0DEF808B9FFE729
:100BC000F9E701F09DF9014601A80180008802B013
:100BD00080BDFFE7FEE770477047000080B507481B
:100BE00040F2E83102F0BEF980BDC04680B503484E
:100BF00040F2E83102F0ECF980BDC0461000002060
:100C0000704780B582B0014601A8017001780020CC
:100C1000032201F0C7F802B080BD704780B584B0F0
:100C200034490868012210430860FFE73148006832
:100C30008007002801D4FFE7F8E7FFE72E4908689E
:100C400080221043086000200390FFE703987F286C
:100C500005D8FFE7FFE70398401C0390F6E7264915
:100C6000086890221043086000200390FFE7039873
:100C70007F2805D8FFE7FFE70398401C0390F6E7BD
:100C8000FFE71D490868032290430860194A10686D
:100C90001A4B184010600868194A1040086008682C
:100CA000184A10400860184908680F2290430860ED
:100CB0001649086840F20312904308600868012250
:100CC00001921304984308600868D30798430860AA
:100CD0000F490868904308600E49002002900860A0
:100CE00003F07EF901980299C00602F0FDFB04B002
:100CF00080BDC0460010024004100240FFFFF2FE1B
:100D00000C00FF08FFFFC2772C1002403010024099
:100D1000341002400810024010B588B007AC0094AF
:100D2000208006A80290018005A80190028004A8F6
:100D3000039003802A2000F017FE0098008800F03E
:100D4000C3FD0198008800F0BFFD2B2000F00CFED1
:100D50000298008800F0B8FD0398008800F0B4FD08
:100D60002C2000F001FE08B010BD000080B586B058
:100D700005A801900021029101809F227F2308464F
:100D8000FFF7CAFF019902980880FFE705A80088CD
:100D90001249884220DCFFE705A8028810498A5CD6
:100DA00004AB1A7000884018407803A90870FFE768
:100DB00004AA1078411E117040B1FFE703A8007823
:100DC00041000848405A00F07FFDF1E7FFE7059831
:100DD000801C05A90880D9E706B080BD49570000EE
:100DE0004E6C0008CE6B0008B0B590B01D460B46A7
:100DF000149C0FA908800EA803800DAB1A800CAAC2
:100E000015800BAD2C800AAD002400942C80099431
:100E1000089407940694059404940394029401940E
:100E20001B880C881B1B079312880388D21A069212
:100E300009880291008801900798012803DBFFE7E9
:100E4000012004900DE0079818B9FFE700200490F6
:100E500006E00020C0430490079840420790FFE757
:100E6000FFE70698012803DBFFE7012003900DE070
:100E7000069818B9FFE70020039006E00020C04361
:100E80000390069840420690FFE7FFE7079806990F
:100E9000884203DDFFE70798059002E00698059079
:100EA000FFE70AA900200880FFE70AA80088059943
:100EB000491C884232DAFFE702A8008801A90988A4
:100EC0000BAA128800F02CF807990998401809908D
:100ED000069908984018089009980599884209DDF4
:100EE000FFE705990998401A09900499029840185B
:100EF0000290FFE708980599884209DDFFE7059908
:100F00000898401A08900399019840180190FFE74B
:100F1000FFE70A98401C0AA90880C6E710B0B0BDD8
:100F200080B584B00B4603A9088002A8038001ABFA
:100F300000931A800A88038810461946FFF7ECFED2
:100F40000098008800F0C0FC04B080BDB0B588B047
:100F500014460D4601460C9A07A8018006A90D808B
:100F600005AD2C8004AC238003AB1A8002AB009348
:100F700000221A8001AB1A8000880988059A521E47
:100F8000049B5B1E92B29BB2FFF7C6FE00990698C7
:100F90000880FFE702A8008804A9098888421BDAB4
:100FA000FFE7079801A90880FFE701A8008805A9C5
:100FB000098888420ADAFFE703A8008800F084FC69
:100FC000FFE70198401C01A90880EEE7FFE70298BF
:100FD000401C02A90880DDE708B0B0BD80B596B01E
:100FE00088480290202101910022109201F090FB8C
:100FF0006420039001F018F80199029801221192DF
:1010000001F086FB039801F00FF80298119A40F264
:10101000001101F07DFB039801F006F8112000F0AB
:10102000A3FC782001F000F8B12000F09DFC052021
:10103000159000F07BFC3C20049000F077FC0498B5
:1010400000F074FCB22000F08FFC159800F06EFCEC
:10105000049800F06BFC049800F068FCB32000F0EA
:1010600083FC159800F062FC049800F05FFC049883
:1010700000F05CFC159800F059FC049800F056FC58
:10108000049800F053FCB42000F06EFC03200A909A
:1010900000F04CFCC020059000F066FC2820089071
:1010A00000F044FC082000F041FC0420129000F005
:1010B0003DFCC12000F058FC059800F037FCC22030
:1010C00000F052FC0D200B9000F030FC109800F066
:1010D0002DFCC32000F048FC8D20069000F026FC7B
:1010E0002A20079000F022FCC42000F03DFC069866
:1010F00000F01CFCEE2000F019FCC52000F034FCD0
:101100001A2000F013FC362000F02EFC702000F0B6
:101110000DFCE02000F028FC129800F007FC2220D3
:1011200000F004FC072000F001FC0A2000F0FEFBA8
:101130002E20099000F0FAFB302000F0F7FB25206C
:101140000E9000F0F3FB079800F0F0FB089800F019
:10115000EDFB26200C9000F0E9FB099800F0E6FB7F
:101160003A20149000F0E2FB109800F0DFFB119899
:1011700000F0DCFB0A9800F0D9FB1320139000F07C
:10118000D5FBE12000F0F0FB129800F0CFFB162019
:1011900000F0CCFB062000F0C9FB0B9800F0C6FB6A
:1011A0002D200F9000F0C2FB0C9800F0BFFB232015
:1011B00000F0BCFB27200D9000F0B8FB0D9800F06C
:1011C000B5FB0E9800F0B2FB0F9800F0AFFB3B2090
:1011D00000F0ACFB109800F0A9FB119800F0A6FB02
:1011E000129800F0A3FB139800F0A0FB149800F0F5
:1011F000BBFB159800F09AFB292000F0B5FB16B058
:1012000080BDC0460004004810B58CB00BA900207A
:101210000880FFE70BA800889A280DDCFFE70BA8E1
:101220000088382140F2E072FFF77AFEFFE70B9862
:10123000401C0BA90880EDE70BA900200880FFE700
:101240000BA800886E280DDCFFE70BA801880020A2
:1012500040F2E072FFF764FEFFE70B98401C0BA919
:101260000880EDE70BA900200880FFE70BA80088A5
:101270000E281CDCFFE70B990A2008904843801CCD
:1012800080B23921099140F2E0720A92FFF748FEDC
:10129000089809990A9A0B9B5843C01C80B2FFF723
:1012A0003FFEFFE70B98401C0BA90880DEE740F2E9
:1012B000CF1005900090002470210691A022802379
:1012C0002046FFF743FE05980699029410220492E7
:1012D00001920090094A0220374B079300F0A0FAD0
:1012E000049A05980699079B029401920090044A7B
:1012F000502000F095FA0CB010BDC046F8C30008AD
:10130000EEC3000880B58AB000200790029010203C
:1013100008900190264803900090264A1C20042142
:10132000254B059300F07CFA039907980091A022C1
:10133000069216231946FFF757FD059B0798089953
:101340000290019100901D4A0A2004901E2100F095
:1013500067FA0498059B0799089A029101920091F7
:10136000174A342100F05CFA0498059B0799089A03
:10137000029101920091134A4A2100F051FA069A13
:10138000079840F2CF11099100916C218023FFF75B
:10139000DDFD079A089909980292019100900A4A86
:1013A00002206E21BF4B00F03BFA0AB080BDC04660
:1013B0000F78000002C40008FFFF0000F1C300081E
:1013C000E0C30008E7C300080EC40008F0B597B0FA
:1013D00014460D4606461E991D9A1C9816AF019795
:1013E0003E8015AE0296358014AD03952C7013AC7B
:1013F000238012AB188011A80490027010AA1170FB
:101400000CAA002105911170169909AA1180007883
:1014100041080EA8069001700178C8080790490796
:10142000401C089009B907980890049B069A0299F5
:101430000198039D089E1C7874430AAE3480149C66
:10144000203C2C700088098812788218521E1B7864
:10145000CB185B1E92B29BB2FFF75EFC05980BA9FE
:101460000880FFE70BA800880AA90988884200DBEA
:1014700086E011A8007810280BD1FFE714A80078A7
:101480000101414840180BA90988405C0FA9087068
:1014900012E011A8007818280CD1FFE714A80078F2
:1014A00030214143374840180BA90988405C0FA9F7
:1014B000087000E064E0FFE70DA900200870FFE776
:1014C0000DA80078072855DCFFE710A8007820BB9E
:1014D000FFE70FA800780DA90978C840C00728B118
:1014E000FFE713A8008800F0EFF904E012A80088D5
:1014F00000F0EAF9FFE70C98411C0CA80170007895
:101500000EA90978B0FBF1F25143401A20B9FFE768
:101510000CA9002008702DE026E00FA800780DA986
:101520000978C840C00748B1FFE716A8008815A988
:10153000098813AA1288FFF7F3FCFFE71698411CED
:1015400016A80180008809A90988401A0EA90978FF
:10155000884208D1FFE7099816A908801598401C11
:1015600015A9088006E0FFE7FFE70D98401C0DA9CC
:101570000870A5E7FFE70B98401C0BA9088071E7EE
:1015800017B0F0BDFE5900080E54000880B592B0A7
:1015900000200890119010900F900E900D900C90DC
:1015A0000B900A9009903C4800683C490968FEF796
:1015B00008FE01460846FEF7B3FDFEF7E0FE0246D0
:1015C0000B46374909A8079003F08CFA079A089848
:1015D00002901020019040F2CF1000902220702144
:1015E0008B4B00F01DF9089810900F900E900D9005
:1015F0000C900B900A90099000F0EAFF119011985E
:10160000C0087D2827D3FFE71198FEF784FE2749FD
:10161000FEF71CFEFEF7B3FE02460B46244909A85E
:10162000059003F05FFA059A0020069002901020C2
:10163000019040F2CF10009060207021744B00F0B8
:10164000EFF8069810900F900E900D900C900B9064
:101650000A9009901DE0119A134909A8039003F01C
:1016600041FA039A0020049002901020019040F269
:10167000CF10009060207021654B00F0D1F80498E5
:1016800010900F900E900D900C900B900A90099076
:10169000FFE712B080BDC046381000203C1000208B
:1016A000C9C30008E0FF00002BC4000800007A4412
:1016B00022C4000880B596B015A90C9100200B90AB
:1016C0000870149013901290119010900F900E903B
:1016D0000D9000F0ABFF01460C98017000780128D6
:1016E0000DD1FFE7002302931020019040F2E0703B
:1016F0000090454A4A201E2100F092F80CE0002399
:101700000293102001904FF6000000903D4A4A20BD
:101710001E2100F085F8FFE700F072FF40F2E8318B
:10172000884221DBFFE700F06BFF40F2E831B0FBBD
:10173000F1F238490DA8099003F0D4F9099A002371
:101740000A93029310200190314800904A203421DE
:1017500000F066F80A98149013901290119010906F
:101760000F900E900D901DE000F04AFF02462749B1
:101770000DA8079003F0B6F9079A00230893029387
:1017800010200190224800904A20342100F048F8AF
:101790000898149013901290119010900F900E9042
:1017A0000D90FFE700F026FFFEF7AAFD049000F081
:1017B00037FFFEF7A5FD01460498FEF747FD1649E1
:1017C000FEF707FDFEF7AEFD024614490DA8059091
:1017D00003F088F9059A00230693029310200190E4
:1017E0000B4800904A21084600F01AF80698149019
:1017F00013901290119010900F900E900D9016B0C3
:1018000080BDC046FDC30008C4C30008D9C300089A
:10181000E0FF0000D1C300080000C842BCC30008BC
:10182000F0B58DB014460D46064614981399129AD9
:101830000CAF3E800BAE35800A9409AC238008AB18
:101840001A8007AA117006A90870FFE70A980078A5
:1018500000B3FFE70CA8059000880BA909880A9A35
:10186000127809AB1B8808AC248807AD04952D7845
:1018700006AE3678029601950094FFF7A7FD04980E
:101880000599007842080C98801808800A98401C36
:101890000A90DBE70DB0F0BD80B50848007818B9B4
:1018A000FFE7FFF773FE08E004480078012803D142
:1018B000FFE7FFF7FFFEFFE7FFE780BDC00F002057
:1018C00080B5FFF7A1FC80BD80B582B0014601A8BC
:1018D0000180694600220A804078087001984870AB
:1018E0003748802100F014FFFFE73648022102F05C
:1018F00079F908B9FFE7F8E768460178314802F05E
:1019000027F9FFE72F48022102F06CF908B9FFE739
:10191000F8E7684641782B4802F01AF928488021F8
:10192000012200F0F5FE02B080BDC04680B582B055
:1019300001A9087022488021002200F0E9FEFFE79B
:101940002048022102F04EF908B9FFE7F8E701A8A4
:1019500001781C4802F0FCF819488021012200F0AF
:10196000D7FE02B080BDC04680B586B005A908701C
:101970001348039040210022049200F0C9FE03980E
:10198000049A802100F0C4FEFFE70E48022102F015
:1019900029F908B9FFE7F8E705A80178094802F036
:1019A000D7F80748019040210122029200F0B0FED2
:1019B0000198029A802100F0ABFE06B080BDC046BF
:1019C000000400480030014080B515480078022826
:1019D0000ED1FFE713480188491C01800088124995
:1019E000884204DBFFE70F4900200880FFE7FFE79C
:1019F0000E48007802280ED1FFE70D480188491CE7
:101A0000018000880849884204DBFFE7084900207C
:101A10000880FFE7FFE70748012102F0F8FF80BDDB
:101A2000050000201C100020102700000E000020E0
:101A3000B01200200044014080B52848022102F085
:101A4000EFFF012848D1FFE72548008850B9FFE79C
:101A50002248002102F010FB234908802049012080
:101A6000088034E01E48008801282FD1FFE71B487A
:101A7000002102F001FB01461A48018000881A4942
:101A80000988884208DDFFE716480088164909885A
:101A9000401A1749086009E0134801881148008876
:101AA000401A1249401812490860FFE710490A68B5
:101AB0001048B0FBF2F0104A10600B4A0020108072
:101AC000084A1080064A10800860FFE7FFE70348D5
:101AD000022102F09CFFFFE780BDC04600040040E9
:101AE000B00F0020AE120020AC120020FFFF00005B
:101AF000B40F002040420F00D80F002081B00146F3
:101B000068460170007840B200280DD4FFE76846AF
:101B1000007841B21F200A46024001209040490946
:101B20008900024A8850FFE701B0704700E100E0F9
:101B300070B582B0024601A802700091007840B2F0
:101B4000002817D4FFE701A9087840B20322D34345
:101B50001840184A8058097849B28C07E50EFF24CE
:101B6000AC40A043009CA401E4B2AC402043194027
:101B700088501AE001A908780F2420400838032271
:101B8000D34318400A4A8058097849B28D07EE0EAF
:101B9000FF25B540A843009DAD01EDB2B5402843F7
:101BA0002140083919408850FFE702B070BDC04697
:101BB0001CED00E000E400E0E3490868082210435F
:101BC0000860FFE7E04800680007002801D5FFE74C
:101BD000F8E7DD490868042210430860FFE7DA48A7
:101BE00000684007002801D5FFE7F8E77047C046C6
:101BF00083B0024602A8027001910078009001288B
:101C000004D0FFE7009802280FD01DE0B7490A680A
:101C10000F20000582430A60019A12050D4BD2186D
:101C200002400868104308600FE009490A68032071
:101C3000000582430A60019A1205064BD218024041
:101C400008681043086000E0FFE703B07047C04633
:101C5000382401400000F0FF81B00090009838B1B6
:101C6000FFE7EA49086840F600021043086006E012
:101C7000E649086840F6000290430860FFE701B0BB
:101C80007047C046E149086840F2001210430860FE
:101C90007047C046DD480068C00730B9FFE7DB4940
:101CA0000868012210430860FFE7704782B001AA6C
:101CB0001070684601700078D0B1FFE701A8007885
:101CC000C00738B1FFE7D149086801221205104367
:101CD0000860FFE701A800788007002807D5FFE724
:101CE000CA49086848F2000210430860FFE719E09B
:101CF00001A80078C00738B1FFE7C449086801228D
:101D0000120590430860FFE701A8007880070028CB
:101D100007D5FFE7BD49086848F200029043086014
:101D2000FFE7FFE702B0704783B0024602A80270E7
:101D3000019100780090012804D0FFE70098022864
:101D40000BD015E0B149086807225204904308609F
:101D5000019A0868104308600BE0AC49086847F234
:101D6000000290430860019A08681043086000E090
:101D7000FFE703B07047C04682B00190694600207B
:101D80000870074800680199084204D0FFE76946D7
:101D900001200870FFE76846007802B07047C0462F
:101DA0000024014010B585B0034604A8037003ABBE
:101DB000197002920078052818D8FFE74D49086885
:101DC000019004AB1C780520024662431F24944016
:101DD000019AA243019203AA12781B7858438240C9
:101DE0000198104301900198086040E004A8007831
:101DF0000B281AD8FFE73E490868019004AB1C780D
:101E00000520024662431E3A1F249440019AA243D1
:101E1000019203AA12781B7858431E388240019819
:101E2000104301900198086020E004A800780F2872
:101E30001AD8FFE72D490868019004AB1C780520EB
:101E4000024662433C3A1F249440019AA243019205
:101E500003AA12781B7858433C38824001981043FB
:101E600001900198086000E0FFE7FFE7FFE703A8A3
:101E70000078092817D8FFE720490868009003ABCD
:101E80001C7803200246624307249440009AA24330
:101E90000092029A1B7858438240009810430090A9
:101EA000009808601FE003A80078122819D8FFE7FF
:101EB00011490868009003AB1C7803200246624376
:101EC0001E3A07249440009AA2430092029A1B787B
:101ED00058431E38824000981043009000980860D4
:101EE00000E0FFE7FFE705B010BDC0462C2401402D
:101EF00030240140342401400C24014010240140CE
:101F00000148006880B270474C24014081B001460E
:101F1000684601700078C00738B1FFE73B490868A0
:101F20000122920510430860FFE7684600788007A9
:101F3000002807D5FFE735490868012252051043FC
:101F40000860FFE701B070470824014082B00190AB
:101F500068460170007830B3FFE701A84078C007F9
:101F600038B1FFE72449086840F2001210430860C6
:101F7000FFE701A840784007002807D5FFE71E4982
:101F8000086840F2004210430860FFE701A80078AB
:101F90008007002806D5FFE71C4908680222104385
:101FA0000860FFE725E001A84078C00738B1FFE7E7
:101FB0001149086840F2001290430860FFE701A849
:101FC00040784007002807D5FFE70B49086840F232
:101FD000004290430860FFE701A8007880070028CE
:101FE00006D5FFE709490868022290430860FFE729
:101FF000FFE702B07047C046042401400349086867
:102000000122D205104308607047C04608240140F1
:1020100080B5022001F006FD024840F2D071FEF7C3
:1020200074F880BD1000002080B584B00390039840
:10203000FEF771F918490968FEF7CBF8FEF78BF93E
:1020400016490860164900200860164901200860FA
:10205000FFE7144800680290FFE7002002A9097812
:10206000C907019041B1FFE702A88078012108402B
:10207000414248410190FFE70198C0070028E8D19C
:10208000FFE70849086801229043086004490020DE
:10209000086004B080BDC046B80F002014E000E026
:1020A00018E000E010E000E081B0014668460170F1
:1020B000007814214143AC4A885801239843885042
:1020C00001B0704781B00146684601700078142164
:1020D0004143A54A885801231843885001B07047EE
:1020E00081B00146684601700078142141439E4A40
:1020F000885820231843885001B07047B0B581B08C
:102100000146684601700178142213464B43964CF1
:1021100019590125A9431951017813464B43002150
:102120001951047813466343A14C1951047813469E
:1021300063434B4C195103785A43944BD150007868
:1021400080000F228240574908681043086001B0A0
:10215000B0BDC046B0B584B0024603A8009002707E
:1021600002910078FFF7A0FF009B029800681C789E
:1021700014210A4662433A4C1051029880681C7838
:102180000A466243814C10510298008A1C780A4624
:102190006243874C10511A7808465043724A80585F
:1021A0000190019843F60074A0430190029844689E
:1021B000C5682C434069044301982043019001986D
:1021C0001B78594388500298007E01280AD1FFE706
:1021D00003A8007814214143634A885840231843D8
:1021E000885009E003A80078142141435E4A8858CA
:1021F000402398438850FFE70298407E01280AD187
:10220000FFE703A8007814214143574A88588023E8
:102210001843885009E003A8007814214143524A2A
:102220008858802398438850FFE70298807E50B9F1
:10223000FFE703A80078142141434B4A8858102334
:102240009843885009E003A8007814214143464A86
:102250008858102318438850FFE704B0B0BDC0462B
:102260001000024082B0024601A802700091009B5B
:102270000078142141433C4A88581843885002B0E2
:102280007047C04682B0024601A802700091009AD1
:10229000007880008240034908681043086002B05B
:1022A0007047C0460400024086B004AA1070039133
:1022B00000200290019003980090022808D0FFE7C8
:1022C0000098042816D0FFE70098082824D035E0AD
:1022D00024480168039A04A803789B009A4011409F
:1022E00001910178142048431F49405802210840B9
:1022F000029024E01B480168039A04A803789B001D
:102300009A401140019101781420484316494058E1
:1023100004210840029012E012480168039A04A8C0
:1023200003789B009A4011400191017814204843A2
:102330000D49405808210840029000E0FFE701984D
:1023400038B1FFE7029820B1FFE705A90120087026
:1023500003E005A900200870FFE705A8007806B093
:102360007047C046000002400800024083B0009160
:102370000246009802A90A70019001980A78142177
:102380005143024A885003B07047C04614000240CF
:1023900083B000910246009802A90A70019001A83A
:1023A00000880A7814215143014A885003B07047CD
:1023B0000C00024080B582B001900199086849681C
:1023C00000F0B8F9C0B9FFE727480078A0B9FFE7E7
:1023D00025490878401C087024490020087001999C
:1023E0008868C96800F0A6F9012804D1FFE71F49F1
:1023F00001200870FFE732E001990868496800F0A1
:1024000099F901282AD1FFE717480078012825D13A
:10241000FFE715490020087001998868C96800F035
:1024200089F948B9FFE711480078012804D1FFE78E
:1024300001990220087410E001998868C96800F0C9
:1024400079F9012808D1FFE70848007820B9FFE7AB
:10245000019901200874FFE7FFE7FFE7FFE710207D
:1024600000F08CF802B080BDC20F0020C10F002028
:1024700010B584B0009101460098069C039002922A
:102480000193039808600298486001988860069854
:10249000C8600320087404B010BD000085B004902B
:1024A00003A8017002A90A70049B304A116899437D
:1024B0001160049B2E4A116899431160049B2D4AB8
:1024C000116899431160049B2B4A1168994311606C
:1024D0000078019020B1FFE70198012806D00BE0B9
:1024E000049A224908681043086006E0049A2049CB
:1024F00008681043086000E0FFE702A80078009039
:1025000003282FD800998A0001A080188746C0466A
:1025100000F006B800F00FB800F018B800F021B8CD
:10252000049A1449086810430860049A124908681C
:102530009043086017E0049A0E49086890430860C9
:10254000049A0D490868104308600CE0049A094990
:10255000086810430860049A074908681043086037
:1025600001E0FFE7FFE705B07047C0460004014007
:1025700004040140080401400C04014081B00090B3
:1025800000980C49086001B07047C04682B00090C6
:10259000084800680099084204D0FFE701A901201B
:1025A000087003E001A900200870FFE701A8007887
:1025B00002B0704714040140014800787047C046DB
:1025C00004000020014800787047C046C00F00207A
:1025D000014800687047C046D80F002001480088B5
:1025E0007047C0461C100020014800787047C04664
:1025F00006000020014800887047C04608000020FF
:1026000081B068460021018007490A880349B1FB6F
:10261000F2F10180008801B07047C04640420F00CF
:10262000014800887047C0460A0000200148007831
:102630007047C0460C000020014800787047C04633
:102640000D000020014800887047C046B0120020ED
:1026500086B00590049103920598006A0190059850
:10266000406A009002A900200880FFE702A80088C5
:1026700007281DD8FFE702A801880398C840C007B3
:1026800080B1FFE702A8018889000F228A400199E2
:10269000914301910499008880008140019808438A
:1026A0000190FFE7FFE70298401C02A90880DDE7E0
:1026B00002A908200880FFE702A800880F281FD879
:1026C000FFE702A801880398C840C00790B1FFE760
:1026D00002A80188890020390F228A40009991437D
:1026E00000910499008880002038814000980843B8
:1026F0000090FFE7FFE70298401C02A90880DBE793
:1027000001980599086200980599486206B07047DB
:1027100083B00290019168460270007820B1FFE713
:1027200001980299886103E0019802998862FFE7A5
:1027300003B0704783B0019000910198006900993F
:10274000084204D0FFE702A90120087003E002A9B3
:1027500000200870FFE702A8007803B0704787B038
:1027600006900591049203930698006801900698DC
:10277000C068009002A900200880FFE702A8008836
:102780000F282BD8FFE702A801880398C840C0078C
:10279000F0B1FFE702A801884900032213468B40ED
:1027A000019999430191059B018849008B4001994A
:1027B00019430191018849008A4000999143009191
:1027C0000499008840008140009808430090FFE78A
:1027D000FFE70298401C02A90880CFE701980699FC
:1027E000086000980699C86007B0704710B586B0B9
:1027F000059004A80170039202930078012806D185
:10280000FFE7029A059948681043486005E0029A7C
:102810000599486890434860FFE7059880680090F4
:1028200001A900200880FFE701A800880F281DD813
:10283000FFE701A801880298C840C00780B1FFE700
:1028400001A80188490003228A4000999143009120
:102850000399008840008140009808430090FFE7FA
:10286000FFE70198401C01A90880DDE70098059961
:10287000886006B010BD10B584B000910146009884
:102880000390029201A803700398086002984860C0
:1028900001984872FF200872002088720873C8727D
:1028A000487304B010BD80B582B001900199FF203B
:1028B0000872019908684968FFF73CFF0199497A55
:1028C00088420ED1FFE70199887A401C88720198EE
:1028D000807A782804DBFFE7019978208872FFE787
:1028E0004AE00198807A642808DBFFE70198407B82
:1028F00020B9FFE701993020087210E00198807A32
:1029000002280BDBFFE70199087B401C0873019943
:102910002820C872019901204873FFE7FFE7019959
:10292000002088720198C07A28B3FFE70199C87A1D
:10293000401EC8720198C07A00281BDCFFE701988E
:10294000007B012804D1FFE701991020087209E0FB
:102950000198007B022804D1FFE70199202008722A
:10296000FFE7FFE701990020C872019908730199F8
:102970004873FFE7FFE7FFE702B080BD80B58CB08A
:1029800002460BA802800AAA117009AA0021118030
:102990000891008842F2000188422BD1FFE70AA883
:1029A00000780790102804D0FFE7079820281CD053
:1029B0001EE070480078012816D1FFE7FFF736FEC9
:1029C00002280CD1FFE7FFF72BFE01F065F8FFF7B7
:1029D00011FE01F04FF8012001F06EF803E0022033
:1029E00001F06AF8FFE7FFE703E001F0EDF900E02E
:1029F000FFE7B8E00BA8008844F20001884237D115
:102A0000FFE70AA80078102830D1FFE7FFF7F2FDB2
:102A1000FDF776FC0690FFF703FEFDF771FC01461B
:102A20000698FDF713FC0890FFF7FAFD014609A888
:102A3000018001884908018000887C2805DCFFE7C7
:102A400009A940F2E8300880FFE709A8059000884E
:102A500001F022F805980088FDF752FC0899FDF76F
:102A6000B8FBFDF75FFC01F005F800E0FFE779E057
:102A70000BA8008848F20001884255D1FFE70AA858
:102A800000780490102804D0FFE70498202829D06B
:102A900048E0FFF7C5FDFDF733FC3549FDF799FB2D
:102AA0000290FFF7A7FDFDF72BFC01460298FDF70A
:102AB00037FB089008980390FFF7B2FDFDF720FC64
:102AC00001460398FDF700FC30B9FFE7FFF7A8FDCA
:102AD000FDF721FC0890FFE70898FDF723FC00F0C4
:102AE000C9FF20E0FFF786FDFDF70AFC0190FFF724
:102AF00097FDFDF705FC1D49FDF76BFB01460198AD
:102B0000FDF70EFB089008980021FDF7EBFB18B9C4
:102B1000FFE700200890FFE70898FDF703FC00F0AE
:102B2000A9FF00E0FFE71CE00BA8008840F20021AD
:102B3000884215D1FFE70AA8007810280ED1FFE7D8
:102B4000FFF752FD022804D1FFE7012000F088FFC3
:102B500003E0022000F084FFFFE700E0FFE7FFE76B
:102B6000FFE7FFE7FFE70CB080BDC0460AD723BDF3
:102B70000AD7233DC00F002010B584B00091014654
:102B800000980390029201A803700398886002984D
:102B90004860019848700020087004B010BD000023
:102BA00010B5BAB000201790399038A9088037A91D
:102BB000088036A91491088035A9087034A90870D6
:102BC00001F028FA00F072FA00F032FB00F01EFA71
:102BD00000F016FC00F070FB00F0DAFB179B31A848
:102BE000D5490D9144F200020F92FFF7C5FF0D99F0
:102BF000179BD24A0E923398906032985060319869
:102C000010602EA848F200021092FFF7B5FF0E994F
:102C1000179B309848612F9808612E98C8602AA8A1
:102C2000C749129142F20002FFF725FE0F9A12994E
:102C3000179BC44C11942D98E0602C98A0602B98A1
:102C400060602A98206026A8FFF715FE109A129956
:102C5000179B2998E0612898A061279860612698C1
:102C6000206122A8FFF707FE119A1299179B259859
:102C7000D0622498906223985062229810621EA815
:102C800040F20022FFF7F7FD1199129B2198C863CB
:102C9000209888631F9848631E9808630820159041
:102CA000009019A81390102216921946FFF7E0FB26
:102CB0001399A5480CC90CC01CC91CC01120FDF7F4
:102CC000A0FFC820FDF792FE1499088040F2E8307A
:102CD000FFF7AAF9FEF782F917990091A022802345
:102CE0000846FEF733F915981799029118220192B8
:102CF0000091964A2321964B1893FEF791FD169961
:102D00001798189B029001910090924A1C2046212E
:102D1000FEF786FD16991798189B02900191009076
:102D20008D4A30205A21FEF77BFDFFE7844842F2AE
:102D30000001FFF7FFFCA8B1FFE7814844F2000162
:102D4000FFF7F8FC70B1FFE77D4848F20001FFF79C
:102D5000F1FC38B1FFE77A4840F20021FFF7EAFCC6
:102D600020B9FFE7C820FFF75FF900E0DEE70021A8
:102D70000091A02280230846FEF7E8F8FEF7A0FDA8
:102D80000320FDF73EFFFFF743F9FDF727FF7348E8
:102D900001F0CDFC724801F0CAFCFFE7FFF71EFC12
:102DA00038A90C910880FFF74DFC01460C9837AA12
:102DB000118000880A2814DBFFE762480B90FFF7B8
:102DC00072FD0B981030FFF76EFD0B982030FFF767
:102DD0006AFD0B983030FFF766FD002000F036FEEC
:102DE000FFE737A8008840F2F411884226DBFFE7AE
:102DF00001200A9000F020FE0A9800F08BFEFFF7F9
:102E0000F3FB34A90870FFF7DDFB50B9FFE734A8E6
:102E10000078022805D1FFE736A8008800F076FB8D
:102E2000FFE7FEF739FD002000F07EFE022009904A
:102E300000F002FE099800F06DFEFFE74148007ABD
:102E4000FF280AD0FFE73F4908918888097AFFF7F1
:102E500095FD0899FF200872FFE73A48007EFF2899
:102E60000AD0FFE737490791888A097EFFF786FD78
:102E70000799FF200876FFE732482821405CFF28A9
:102E80000DD0FFE72F490691888C28220592895C96
:102E9000FFF774FD059A0699FF208854FFE729483B
:102EA0003821405CFF280DD0FFE726490491888E29
:102EB00038220392895CFFF761FD039A0499FF2091
:102EC0008854FFE72048007C032833D0FFE71E48E2
:102ED000007C012815D1FFE7FFF7AEFB014635A8BE
:102EE00001703599491E01700078012804DCFFE764
:102EF00035A901200870FFE735A8007800F000FE32
:102F000014E0FFF799FB014635A801703599491C7B
:102F100001700078072804DBFFE735A90620087058
:102F2000FFE735A8007800F0EBFDFFE70649032036
:102F30000874FFE732E7C046000800482010002070
:102F400000040048DC0F0020C40F002098C30008D4
:102F5000FFFF0000AEC30008A5C300080044014005
:102F60000004004080B58AB00990089140F20050FA
:102F700000F020FD09200021009100F09FFA009848
:102F8000FFF7BCF800981149019101A90876099A48
:102F9000039201224A7640F20012029240F200426D
:102FA00004928876089A059242F200020692FFF790
:102FB000D1F80098FFF794F80098FFF783F800988D
:102FC0000221FFF74FF90AB080BDC0464C240140F2
:102FD00080B584B00390029100200190FFF764F85F
:102FE00001980121FFF74EF901980399FFF7BEF907
:102FF00001980299FFF7CCF901980221FFF732F905
:103000000198FFF75FF804B080BD000080B586B07E
:10301000DD4800F0CFFC244800F0CCFC09200190F2
:1030200000F002FC0198C0060321039100220292E5
:103030000823FFF794FB0220049001210591FEF77D
:1030400085FF029940F20010FEF780FF029940F2DE
:103050000040FEF77BFF0298FEF7FEFD059908464B
:10306000FEF7C6FD0298039A1146FEF79BFEFEF797
:10307000C5FF059807214904FEF756FE0599084645
:10308000FEF714FEFEF706FE0498FEF7CDFFFEF7EE
:1030900093FD0598FEF7C8FFFEF7F4FD0598FEF7CF
:1030A00035FF06B080BDC0460906000080B58CB073
:1030B0005B4800F07FFC5B4800F07CFC40F2006065
:1030C00000F078FC5848019044F200010091012280
:1030D0000992FFF71DFB0198099A48F2000102913D
:1030E000FFF716FB099A5148069020210391FFF73C
:1030F0000FFB0698099A40210491FFF709FB0698F7
:10310000099A80210591FFF703FB0698099A40F27E
:1031100000110791FFF7FCFA009B01980999002222
:103120000A92FFF71CFB0198029B09990A9AFFF784
:1031300016FB0698099A0A9942F20003FFF70FFB63
:10314000009B0698099A0A99FFF709FB029B0698CB
:10315000099A0A99FFF703FB0698099A0A9940F21F
:103160000023FFF7FCFA0698099A0A990823FFF74B
:10317000F6FA039B069809990A9AFFF7F0FA049B5E
:10318000069809990A9AFFF7EAFA059B06980999A1
:103190000A9AFFF7E4FA0698079B09990A9AFFF73B
:1031A000DEFA0698099A0A9910230B93FFF7D7FACB
:1031B000009B01980A9903220892FFF717FB0198D8
:1031C000029B089A0A99FFF711FB039B0698089A3D
:1031D0000A99FFF70BFB049B0698089A0A99FFF7D8
:1031E00005FB059B0698089A0A99FFF7FFFA0698CF
:1031F000079B089A0A99FFF7F9FA0899072000F047
:103200005DF90998042100F01FFE0A990B9802222B
:10321000FFF744F90B98FFF7B1F90CB080BDC04639
:1032200013050000120500000008004800040048D3
:1032300010B58EB09D4800F0BDFB1D4800F0BAFBF4
:103240000920C006019000210491A0220292FFF7FC
:10325000FFF90198029B049A0221FFF780FA019876
:10326000029B049903220392FFF7C0FA11480690CB
:1032700000F094FC07A8059000F090FD039B049AD1
:10328000059906984CF20004089440F2041407943F
:1032900040F2007409940C9340F200230A930D92BB
:1032A0000B9200F0DFFC069800F048FC0EB010BD59
:1032B0000C0600000030014010B590B07B4800F0D3
:1032C00079FB40F2106000F075FB0920C006019008
:1032D000022104910022069204230293FFF73FFA91
:1032E0000198029B06990322FFF780FA0198029A3F
:1032F0000699FFF7ADF92548089001F09BF909A858
:10330000039001F0DBFB0399069A089847230B8092
:103310004A808A80394B0B93CA800A7301F010FAF5
:103320000DA8059001F075F9049B059A0699089877
:10333000012407941480518093800823D38040F2A5
:103340000013138140F20023538100F01FFF069900
:10335000089840F2F41201F0E3F806990898602208
:1033600001F08EF8069A0898114601F003F90898C2
:1033700000F070FE0799089801F087FB089801F0AB
:10338000CDF910B010BDC04611050000004001404D
:1033900080B588B0174800F00DFB1748039001F086
:1033A00049F9039801220292114601F056FB04A844
:1033B000019001F083FB0199039847220A800022C3
:1033C0004A808A800D4B0693CA800A7301F0B8F9CF
:1033D0000299039801F01BFB1520022100F06EF802
:1033E0000299039801F009FB039801F097F908B0DE
:1033F00080BDC0461106000000440140E703000004
:1034000080B58EB0294800F0D5FA294800F0D2FAEC
:103410000920C00600900221069100220492402358
:103420000193FFF79CF90098019B04990322FFF791
:10343000DDF90098019A01210391FFF709F9039939
:10344000102000F03BF81B48079001F0F3F808A8A3
:10345000029001F033FB0299049A079847230B80EE
:103460004A808A80144B0A93CA8001F069F90CA83B
:10347000059000F07CFE039B0499059A0798118043
:1034800053809180D18001F0D9F9079800F0E2FDD6
:103490000699079801F0BBFA0699079801F0ADFA72
:1034A000079801F03BF90EB080BDC0461105000041
:1034B0000107000000040040FFFF000080B584B059
:1034C0000A46014603A80190017002A90A7000781B
:1034D00040B20978FEF72CFB0198007840B2FEF765
:1034E0000DFB04B080BD000082B0019000910198F6
:1034F0000099044A1140084303490860BFF34F8F05
:1035000002B0704780FFFF1F08ED00E010B592B0D9
:1035100011A9088010A9002008800FA908800EA911
:1035200008800DA908800CA908800BAAB249118057
:103530000AA908800990FFF73FF8012801D0FFE7AA
:1035400057E111A8008801280ADBFFE711A80088CD
:10355000FCF7E1FE0146AA48FCF778FE099002E07C
:10356000A6480990FFE710A900200880FFE710A8EF
:1035700001880020A34A914208900FDCFFE70EA8C3
:10358000018840F2E832012000230693914207901F
:1035900001DB0698079007980890FFE70898C00796
:1035A00000285AD0FFE710A8008841009C48405AE4
:1035B0000BA90988884208DAFFE710A800884100B3
:1035C0009748405A0BA90880FFE710A800884100DF
:1035D0009348405A0CA90988884208DDFFE710A8E3
:1035E000008841008E48405A0CA90880FFE710A8C7
:1035F000008841008A48405AFCF782FE0999FCF78E
:10360000E8FD3F210906FCF78BFDFCF78BFE024627
:103610000EA9088843007C48C25209884900405AD4
:103620006F2807DBFFE70EA80088420076496E206E
:103630008852FFE70EA908884300734AD45A6E20C7
:10364000001BD0520E98401C0880FFE77548017897
:103650001098401810A9088089E70E990AA80180DF
:103660000FAA0021118000889C2828DBFFE710A901
:1036700000200880FFE710A800880AA909889C3963
:1036800088421BDAFFE710A8008841005E48405AD4
:1036900029280DDBFFE710A8008840005A49401890
:1036A0004088282804DCFFE710980FA9088005E06F
:1036B000FFE71098401C10A90880DCE7FFE710A97D
:1036C00000200880FFE710A800889A2823DCFFE785
:1036D0000FA8008810A9098840180AA909888842FB
:1036E0000CDAFFE70FA8008810A9098840184200EB
:1036F0004548805A4A004549885206E010A800888B
:10370000420042496E208852FFE7FFE71098401CB4
:1037100010A90880D7E73D4800880DA9088010A9A6
:1037200001200880FFE710A8008898282BDCFFE71D
:1037300010A8039000884100384B595A421C54008D
:103740001B5B0024009492B2FDF74EFB03980088A7
:103750000DA905910988421C44002C4B04931B5B66
:1037600040F2E074009492B2FDF73EFB039A049895
:10377000059912885200805A0880FFE71098401C73
:1037800010A90880CFE710A901200880FFE710A842
:1037900000889A280FDCFFE710A801881B484A0020
:1037A0001018801E00881D498852FFE71098401CA1
:1037B00010A90880EBE70CA80088FCF7ACFD09997C
:1037C000FCF707FD12490291FCF740FD1149086022
:1037D0000BA80088FCF79FFD0999FCF7FAFC0299F9
:1037E000FCF734FD0C490860FEF712FCFDF7FEF90A
:1037F000FFE712B010BDC046FF0F00004108843C37
:103800000000C041E7030000E00700204010002056
:103810000000A041381000203C100020761100204C
:10382000100000200D00002082B0014601A80170A8
:103830005D4A11684CF20003994311605B4A1168BC
:103840005B4B1940116000780090092800D9A7E06F
:1038500000998A0001A080188746C04600F012B87F
:1038600000F01CB800F026B800F02EB800F03BB80D
:1038700000F046B800F056B800F061B800F071B83A
:1038800000F07CB84949086801221204904308609E
:10389000086840F200129043086082E043490868DB
:1038A0000122120410430860086840F2001290439D
:1038B000086076E03C49086808603C49086840F2C6
:1038C0000012104308606CE0374908680860374907
:1038D00008680122D20710430860086840F200120D
:1038E000104308605DE03049086844F2000210436C
:1038F00008602E49086840F200121043086050E04A
:103900002949086844F20002104308602749086802
:103910000122D20710430860086840F200121043E9
:1039200008603EE02049086848F200021043086041
:103930001E49086840F200121043086031E01A493D
:10394000086848F20002104308601849086801221C
:10395000D20710430860086840F200121043086064
:103960001FE0114908684CF20002104308600F493B
:10397000086840F200121043086012E00A49086823
:103980004CF2000210430860084908680122D2077F
:1039900010430860086840F200121043086000E01D
:1039A000FFE702B07047C0460410024030100240EA
:1039B000FFFEFE7F81B001466846018000881F221D
:1039C0000146114001238B408109154A885818434C
:1039D000885001B07047C04681B0014668460180FA
:1039E00000881F220146114001238B4081090C4AA7
:1039F00088589843885001B07047C04681B001464E
:103A00006846018000881F220146114001238B4037
:103A10008109034A88581843885001B07047C0464E
:103A20000010024081B06946087000980149087092
:103A300001B070470400002081B06946087000980A
:103A40000149087001B070470500002081B0694647
:103A5000088000980149088001B070471C100020C0
:103A600081B06946087000980149087001B070473C
:103A70000600002080B582B0014601A801800199AE
:103A8000044A118002881C48002100F049FD02B060
:103A900080BDC0460800002080B582B0014601A864
:103AA00001800199034A11800188134800F0DBFA74
:103AB00002B080BD0A00002080B582B0014601A896
:103AC00001700078012807D1FFE70B4800F02FFEB6
:103AD0000A49012008700CE001A80078022807D1EB
:103AE000FFE7054800F01AFE044902200870FFE7CE
:103AF000FFE702B080BDC046004001400C0000203E
:103B000081B06946087000980149087001B070479B
:103B10000D00002081B069460870009801490870C6
:103B200001B070470E00002081B0694608800098FF
:103B30000149088001B07047B012002081B00090A8
:103B40000099086840221043086001B070470000E7
:103B500084B0039002A8018003988F49884205D160
:103B6000FFE702A800880399C86015E00398406841
:103B700041F2000108400090009838B1FFE7039837
:103B80000C30019002980199087004E002A80088A6
:103B90000399C860FFE7FFE704B0704780B584B0C1
:103BA0000390039802902E4988420ED0FFE70298B6
:103BB0007949884211D1FFE740F20C300190FFF7BC
:103BC0001DFF0198FFF708FF08E005480090FFF788
:103BD00015FF0098FFF700FF00E0FFE704B080BD8D
:103BE0000E04000083B00190009101988068009954
:103BF000084204D0FFE702A9012008702BE00198D9
:103C00001749884223D1FFE7009870B9FFE7019870
:103C10008068C004800F20B1FFE702A9002008706F
:103C200019E002A90120087015E0009870B9FFE7BB
:103C3000019880684005800F20B1FFE702A90020AD
:103C4000087008E002A90120087004E0FFE702A95B
:103C500000200870FFE702A8007803B07047C04654
:103C60000038004086B0049003910020029001903B
:103C70000090049800680290029843F240010840C6
:103C80000290049800680190019843F640010840B2
:103C9000019004984068009000983E4908400090C8
:103CA00004983D4988423DD1FFE703980168029896
:103CB00008430290039841680298084302900398D1
:103CC000C16802980843029003980169029808436A
:103CD0000290039841690298084302900398816911
:103CE0000298084302900398806840F2007188426D
:103CF0000BD0FFE70398806840F60071884204D03B
:103D0000FFE705A90020087040E00398816840F6AD
:103D100000000140029808430290FFE702980499CE
:103D2000086029E00398016801980843019003980E
:103D300041680198084301900398C16801980843BD
:103D40000190039801690198084301900398416923
:103D500001980843019003988169019808430190F4
:103D600001980499086003988168009808430090BE
:103D7000009804994860FFE70499C86940F600027A
:103D80009043C86105A901200870FFE705A80078E5
:103D900006B07047FFF000000030014081B0009095
:103DA00000990020086000994860009A40F2007174
:103DB00091600099C8600099086100994861009974
:103DC000886101B07047000080B584B01B49029142
:103DD0000878401C0322B0FBF2F35A43801A0870A3
:103DE00000210091A02280230846FDF7AFF8029839
:103DF0000078039040B1FFE70398012815D0FFE752
:103E00000398022814D016E0FDF7FEF90C4840F2A2
:103E100036110191FCF779F901990A48FCF775F917
:103E2000FEF7F6F8FCF7E2FE06E0FDF76BFA03E0BA
:103E3000FCF79CFF00E0FFE704B080BDC00F00204E
:103E4000761100204010002085B00A4604A90870B1
:103E500003A8027002789207130F0F229A40D243F0
:103E60000292097802789207120F9140019100782E
:103E700080080090032835D800998A0001A0801896
:103E80008746C04600F006B800F00EB800F016B83D
:103E900000F01EB8029A1849086810400860019A9C
:103EA0000868104308601EE0029A12490868104032
:103EB0000860019A08681043086014E0029A0C49EF
:103EC000086810400860019A0868104308600AE01A
:103ED000029A0649086810400860019A0868104371
:103EE000086000E0FFE705B07047C04614000140DD
:103EF000100001400C0001400800014084B0002087
:103F000003900290314908680122120410430860AE
:103F1000FFE70398401C03902C48006801214904E6
:103F200008400290FFE702990020019039B9FFE7AD
:103F300003982749401A411E88410190FFE70198E4
:103F4000C0070028E5D1FFE720480068800300286B
:103F500002D4FFE7FFE7FEE71E490868022210438C
:103F60000522904308601C490091086808600868B1
:103F70000860086808600868184A10400860086807
:103F80001D2212041043086010490868012212061D
:103F900010430860FFE70D4800688001002801D445
:103FA000FFE7F8E70C4908680322904308600868B7
:103FB000022210430860FFE7074800680C21084010
:103FC000082801D0FFE7F7E704B07047001002406F
:103FD000FFFF00000020024004100240FFFFC277F4
:103FE00080B5FFF78BFF80BD81B00090009804285A
:103FF00006D1FFE70649086804221043086005E07F
:1040000003490868042290430860FFE701B0704745
:1040100010E000E080B50420C043FFF7E5FF08484A
:104020000068FCF778F90749FCF710F901460648E3
:10403000016000680549FCF7CCF80549086080BDBF
:10404000000000200024F44ABC0F002000007A4445
:10405000B80F002081B000900099086880221043BA
:10406000086001B0704782B0019068460180008806
:104070000199C86202B0704784B0039002A8018021
:10408000002101910088009003281DD800998A0022
:1040900001A080188746C04600F006B800F008B8B6
:1040A00000F00AB800F00CB80398406B01900CE0E7
:1040B0000398806B019008E00398C06B019004E0C6
:1040C0000398006C019000E0FFE7019804B070478E
:1040D00084B0039002A8018001A90A8000880090A2
:1040E000032841D800998A0001A080188746C0465D
:1040F00000F006B800F010B800F01CB800F026B8C8
:10410000039988690C229043886101A80288039969
:1041100088691043886128E00399886940F6004265
:104120009043886101A800880202039988691043BE
:1041300088611AE00399C8690C229043C86101A8FC
:1041400002880399C8691043C8610EE00399C869E1
:1041500040F600429043C86101A80088020203991A
:10416000C8691043C86100E0FFE704B0704781B040
:104170000090009900200880009A01215180009948
:1041800088800099C88001B07047000084B0039017
:1041900002A80180019200880090032800D964E100
:1041A00000998A0001A080188746C04600F006B832
:1041B00000F063B800F0CBB800F023B90399086AA7
:1041C0000122904308620399886903229043886121
:1041D000019802880399086A104308620399086AE3
:1041E000022290430862019882880399086A10436A
:1041F000086203989E4988420FD0FFE703989D49C3
:1042000088420AD0FFE703989B49884205D0FFE720
:1042100003989A4988422FD1FFE70399086A04223C
:1042200090430862019842880399086A1043086223
:104230000399086A0822904308620198C28803998A
:10424000086A104308620399486840F200129043DC
:1042500048600198028903994868104348600399AF
:10426000486840F2002290434860019842890399CF
:10427000486810434860FFE7F8E00399086A102295
:10428000904308620399886940F200329043886144
:104290000198008802010399086A10430862039993
:1042A000086A2022904308620198808802010399DD
:1042B000086A1043086203986D49884233D1FFE7CA
:1042C0000399086A402290430862019840880201DD
:1042D0000399086A104308620399086A8022904390
:1042E00008620198C08802010399086A10430862B5
:1042F0000399486840F20042904348600198008961
:10430000820003994868104348600399486840F662
:1043100000029043486001984089820003994868F0
:1043200010434860FFE70398F64988420ED1FFE743
:104330000399486840F20042904348600198008920
:1043400082000399486810434860FFE78EE00399B4
:10435000086A40F20012904308620399C869032278
:104360009043C8610198008802020399086A1043CB
:1043700008620399086A40F200229043086201989B
:10438000808802020399086A104308620398DC4996
:10439000884235D1FFE70399086A40F20042904312
:1043A00008620198408802020399086A1043086273
:1043B0000399086A40F60002904308620198C08899
:1043C00002020399086A104308620399486841F29F
:1043D00000029043486001980089020103994868EF
:1043E000104348600399486842F2000290434860D5
:1043F0000198408902010399486810434860FFE72B
:1044000034E00399086A41F200029043086203997C
:10441000C86940F200329043C861019800880203E5
:104420000399086A104308620399086A42F200027D
:10443000904308620198808802030399086A104338
:1044400008620398F74988420ED1FFE7039948684C
:1044500044F2000290434860019800898201039968
:10446000486810434860FFE700E0FFE704B070478A
:10447000002C014000400140004401400048014040
:1044800084B0039002A8018001A90A8000880090EE
:10449000032841D800998A0001A080188746C046A9
:1044A00000F006B800F010B800F01CB800F026B814
:1044B0000399886970229043886101A80288039952
:1044C00088691043886128E00399886947F20002EF
:1044D0009043886101A8008802020399886910430B
:1044E00088611AE00399C86970229043C86101A8E5
:1044F00002880399C8691043C8610EE00399C8692E
:1045000047F200029043C86101A8008802020399A3
:10451000C8691043C86100E0FFE704B070470000BD
:1045200084B0039002A801800192008800900328C3
:104530001CD800998A0001A08018874600F006B8B0
:1045400000F008B800F00AB800F00CB80198039920
:1045500048630CE001980399886308E00198039987
:10456000C86304E001980399086400E0FFE704B021
:104570007047000084B0039002A8018001A90A805E
:1045800000880090032841D800998A0001A0801873
:104590008746C04600F006B800F010B800F01CB81E
:1045A00000F026B80399886908229043886101A821
:1045B0000288039988691043886128E00399886913
:1045C00040F600029043886101A800880202039926
:1045D0008869104388611AE00399C86908229043EA
:1045E000C86101A802880399C8691043C8610EE038
:1045F0000399C86940F600029043C86101A8008889
:1046000002020399C8691043C86100E0FFE704B0E3
:10461000704781B000900099002008800099488080
:10462000009988800099C880009908810099488184
:1046300001B0704780B58AB00990099808907A490E
:10464000884226D0FFE708982C49884229D0FFE706
:104650000898764988422CD0FFE70898714988422B
:104660000FD0FFE70898724988422BD0FFE70898DF
:10467000704988422FD0FFE708986F49884232D0AE
:1046800039E025480790FFF7B9F90798FFF7A4F933
:1046900032E020480690FFF7B1F90698FFF79CF941
:1046A0002AE01B480590FFF7A9F90598FFF794F950
:1046B00022E040F208400490FFF7A0F90498FFF7C9
:1046C0008BF919E040F210300390FFF797F9039847
:1046D000FFF782F910E00D480290FFF78FF902987A
:1046E000FFF77AF908E008480190FFF787F9019889
:1046F000FFF772F900E0FFE70AB080BD001000404C
:10470000002C014000400140120300001103000092
:1047100004040000010400000B03000081B00090BD
:104720000099086801229043086001B0704781B089
:1047300000900099086801221043086001B070479A
:1047400082B00190009100980088019988620198D8
:104750003449884205D0FFE701983349884212D195
:10476000FFE701990868702290430860009842882A
:1047700001990868104308600098828801990868C8
:1047800010430860FFE7009880680199C8620198AB
:104790002449884219D0FFE701982349884214D060
:1047A000FFE70198214988420FD0FFE7019820498F
:1047B00088420AD0FFE701981E49884205D0FFE7EA
:1047C00001981D4988420DD1FFE70199086840F220
:1047D0000032904308600098C2880199086810432D
:1047E0000860FFE701980F4988420FD0FFE7019862
:1047F0000F4988420AD0FFE701980E49884205D048
:10480000FFE701980C49884205D1FFE70098007B3B
:1048100001990863FFE70199486901221043486143
:1048200002B07047002C014000040040002000400E
:1048300000400140004401400048014080B584B080
:10484000039002A80180019200880090032800D9FB
:10485000C9E000998A0001A08018874600F006B8D8
:1048600000F030B800F05EB800F08BB80399086A29
:104870000122904308620399086A0A239843086258
:10488000019803880399086A1843086203998869A4
:1048900003239843886101984388039988691843E2
:1048A000886103998869F023984388610198C088DA
:1048B000030103998869184388610399086A1043C2
:1048C000086291E00399086A1022904308620399F4
:1048D000086AA0239843086201980088030103999D
:1048E000086A184308620399886940F200339843C4
:1048F0008861019840880302039988691843886198
:10490000039988694FF20003984388610198C08831
:10491000030303998869184388610399086A10435F
:10492000086261E00399086A40F20012904308624D
:104930000399086A40F600239843086201980088AA
:1049400003020399086A184308620399C86903239C
:104950009843C861019843880399C8691843C8619E
:104960000399C869F0239843C8610198C08803017E
:104970000399C8691843C8610399086A104308621B
:1049800032E00399086A41F20002904308620399F9
:10499000086A4AF2000398430862019800880303FA
:1049A0000399086A184308620399C86940F2003302
:1049B0009843C8610198408803020399C869184365
:1049C000C8610399C8694FF200039843C861019810
:1049D000C08803030399C8691843C8610399086A2A
:1049E0001043086200E0FFE7039802A90988019AD2
:1049F0009288FFF76DFB04B080BD82B001900091FA
:104A0000009A0199C8681043C86002B0704782B02C
:104A1000019000910098C0430199086102B070476D
:104A200084B0029001910298C068019908400090FA
:104A3000029800690199084207D0FFE7009820B169
:104A4000FFE703A90120087003E003A90020087014
:104A5000FFE703A8007804B0704784B000910146D6
:104A60000098039102A9088001A802700988039A9E
:104A700091620078012806D1FFE703994869012275
:104A800010434861FFE704B0704782B00190684668
:104A900001700078012807D1FFE70199486C48F2BE
:104AA00000021043486406E00199486C48F2000295
:104AB00090434864FFE702B07047000081B0009067
:104AC0000099002008800099488000998880009A09
:104AD000034991600099C8800099087301B070473C
:104AE000FFFF00000FB410B504A9074B02AA0398FA
:104AF00000F0ECF8044602A9002000F083FC2046F8
:104B000010BC08BC04B01847055400082021020C52
:104B100001D010211046020A01D0104608390209BE
:104B200001D01046091F820801D01046891E420894
:104B300001D0881E7047081A704702E008C8121F8B
:104B400008C1002AFAD170477047002001E001C176
:104B5000121F002AFBD17047F0B51FB486B0099828
:104B6000089A030D0021024314D05148514A1818E5
:104B7000504305141198012810981AD0281A401C87
:104B800000264D4F4D49009601910490002812DAFD
:104B9000444211E01198012449A3012801D1109841
:104BA000C1430698119A84600360C26041600BB0F3
:104BB000F0BD4042E4E70446210500203F4A001CC6
:104BC00051410391029012E0E00707D032463B4684
:104BD00001990098FBF70AFD0191009032463B468F
:104BE00010461946FBF702FD06460F466410002CDE
:104BF000EAD10498039B0028029A0999089806DADA
:104C0000FBF7F4FC019B009AFBF7F0FC05E0FBF7D7
:104C100055FD019B009AFBF751FD04460E4600220C
:104C2000284BFBF7E3FD03D80020C043014607E013
:104C30000022254B20463146FBF726FCFBF7B6FD4C
:104C4000102409E0002C0ADB0A220023FBF7ABFB4F
:104C5000079B30321A55641E02460A43F2D11122D4
:104C6000641C079B121B1C19119B012B03D00123F1
:104C700008430ED10AE0084304D011201090002010
:104C8000119077E71098151A6D1E0BE0109882426C
:104C900002DD00236D1C03E0824201DA00236D1E59
:104CA000002BEED0069811998260C16030C07EE77B
:104CB00001FCFFFF104D0000000014400000F03F19
:104CC000300000000000F0430000E03FFFB597B067
:104CD0000646002518E2252877D100242746FD49FD
:104CE000049400E00443761C32780120203A90407E
:104CF0000842F7D130782A280ED0022230780146B7
:104D00003039092916D804990A23594330394018F3
:104D10001443761C0490F1E7189802C80491189087
:104D2000002904DA01204003044348420490022091
:104D30000443761C30782E2814D104200443707864
:104D4000761C2A2809D11898761C80C8189009E08A
:104D50000A214F43303FC719761C3078014630395D
:104D60000929F5D930786C2810D006DC4C281AD0E7
:104D700068280ED06A2817D104E0742813D07A2846
:104D800012D110E00120400504430CE00121090587
:104D900001E0032109050C437178814203D1012010
:104DA00000052418761C761C3078119066280BD0EC
:104DB00013DC58287DD009DC00287BD04528F6D0AC
:104DC0004628F4D047281AD1A5E118E0632835D049
:104DD000642870D0652812D19DE170286CD008DC61
:104DE0006728F1D069287BD06E280DD06F2806D1B6
:104DF000BAE073282ED0752871D0782859D01A9A25
:104E0000199990476D1C7EE16002400F022809D07D
:104E100003280DD00428189801680DD00D60001DDE
:104E2000189070E11898EA1701680D604A60F6E77B
:104E3000189801680D80F2E70D70F0E718986A463F
:104E400001781172001D18900020507202A8009085
:104E5000012005E0189802C8189000200091C04376
:104E600061070DD5002101E00199491C0191B9426A
:104E700012DA8142F8DB009A515C0029F4D10BE090
:104E8000002101E00199491C01918142FADB019A5C
:104E90000099895C0029F5D1019904981A9B471A59
:104EA00021463846199A00F097FA01994019451899
:104EB0000BE04FE02CE113E04EE000980099007801
:104EC000491C00911A9A199990470198401E019027
:104ED000401CF2D1214638461A9B199A10E137E05E
:104EE0000A200021009001916002410F022907D0A1
:104EF000189A01CA1892C2179446032908D00AE0EA
:104F00001898C01DC108C90005C91891944607E04A
:104F100000B2C2179446042902D140B2C1178C4690
:104F200000226146944506DA0A460021404291413A
:104F30008C462D2102E0210504D52B216A461173F0
:104F4000012103E0E10701D02021F7E7029155E0BC
:104F50000A200AE0102008E0102000900021042020
:104F600004430191082703E00820002101910090EB
:104F70006002410F022907D0189A01CA1892002234
:104F80009446032908D008E01898C01DC108C9003C
:104F900005C91891944603E080B2042900D1C0B23B
:104FA00000210291210729D51199702906D0009A74
:104FB0001021019B4A401A4305D00EE040216A4669
:104FC0001173012108E06146014306D030216A4691
:104FD00011731199517302210291009A0821019BCA
:104FE0004A401A430AD16146014301D1610705D500
:104FF00030216A46117301217F1E029111995829AF
:1050000004D035A10E910DA90D910DE037A1F9E75E
:105010006146019B009AFBF7C6F90E9B8C469B5C90
:105020000D9A521E0D92137061460143F0D10D98F6
:1050300005A9081A20300190600703D5012000045B
:10504000844300E001270198874201DD381A00E01F
:105050000020019900904118029809180498401AFC
:105060000490E00306D421461A9B199A049800F094
:10507000B3F94519002706E003A81A9AC05D1999EB
:1050800090476D1C7F1C02988742F5DBE0030CD52E
:1050900021461A9B199A049800F09EF9451904E0DC
:1050A0001A9A3020199990476D1C0099481E00905B
:1050B0000029F5DC08E00D980D990078491C0D9148
:1050C0001A9A199990476D1C0199481E0190002960
:1050D000F1DC63E1092801003031323334353637F1
:1050E0003839616263646566000000003031323334
:1050F00034353637383941424344454600000000D4
:1051000000F05AF94519761C3078002800D0E2E505
:1051100028461BB0F0BD600700D406271898C01DB4
:10512000C108C90048680A680831C30FDB07189135
:10513000190001D09CA108E0210501D59BA104E044
:10514000E10701D09AA100E09AA1430011985B0801
:10515000109165280CD006DC452809D046281DD0C2
:10516000472841D141E0662818D067283CD13CE06F
:105170000021112F01DB112000E0781C019100902B
:1051800008A911A8FFF7E8FC139905910021119ACD
:1051900015927F1C12980197009150E00120C007E2
:1051A00003900120019008A9009711A8FFF7D4FCF3
:1051B000139A149905920022119B0092129815934C
:1051C000059A0192002901D0104602E0791C40188E
:1051D0000190381A01D5019804E04042401E009029
:1051E000781C0190C01B029043E0012F00DA0127D8
:1051F0000021112F01DD112000E0384601910090BF
:1052000008A911A8FFF7A8FC13990591119A00218C
:10521000129815920091019721070CD40599B94273
:1052200001DB019900E00191012904DD159A491E75
:10523000515C302906D0B84201DA011D05DA01219E
:10524000029115E00199491EEDE7002805DC00995F
:10525000411800910199091A03E0019A411C9142F9
:1052600000DD01910099401A401C02900120C00706
:105270000390200706D402990198814202DB0020A6
:10528000C043029000206946C87707AF0121039808
:105290000337C907884224D0022011902B20129096
:1052A000039800280CDA404203902D20129007E06A
:1052B0000A210398FBF7C0FA30317F1E0390397042
:1052C0001199481E11900029F2DC03980028EFD1B3
:1052D000791E129808703078202108404530BF1E92
:1052E000387006A8C01BC01D0390109800780028D5
:1052F00000D00120019941180298C017091803989D
:1053000009180498401A401E0490E00306D4214670
:105310001A9B199A049800F05FF8451910980078C4
:10532000002803D01A9A199990476D1CE00324D5E0
:1053300021461A9B199A049800F04EF845191CE072
:105340000098002807DB00990598884203DD15982E
:10535000405C199901E0199930201A9A90470098F9
:105360006D1C401C00900298401E0290002804D141
:105370001A9A2E20199990476D1C0199481E019088
:105380000029DDDC05E038781A9A7F1C19999047CE
:105390006D1C0399481E03900029F4DC21461A9BDA
:1053A000199A0498ACE600002D0000002B000000C4
:1053B0002000000000000000F8B5044600251E464D
:1053C0001746880404D405E039462020B0476D1CF8
:1053D000641EF9D52846F8BDFFB50446002581B006
:1053E0001E46C80301D5302700E02027880404D5D5
:1053F00005E038460399B0476D1C641EF9D5284670
:1054000005B0F0BD0A68531C0B60107070470000B7
:10541000000000000000000000000000000000008C
:1054200000080808080808080000181800000048CC
:105430006C241200000000000000000000000000CA
:10544000002424247F1212127F1212120000000086
:10545000081C2A2A0A0C1828282A2A1C08080000D6
:105460000022251515152A58545454220000000016
:10547000000C1212120A76252911916E0000000606
:1054800006040300000000000000000000000040CF
:10549000201010080808080808101020400000021A
:1054A0000408081010101010100808040200000072
:1054B000000008086B1C1C6B0808000000000000BE
:1054C0000000080808087F0808080800000000001D
:1054D00000000000000000000000060604030000B9
:1054E000000000000000FE000000000000000000BE
:1054F00000000000000000000000060600000000A0
:10550000804040202010100808040402020000001F
:105510000018244242424242424224180000000045
:1055200000080E08080808080808083E00000000E7
:10553000003C4242422020100804427E000000004D
:10554000003C4242201820404042221C0000000043
:1055500000203028242422227E2020780000000011
:10556000007E0202021A26404042221C0000000077
:1055700000382402021A2642424224180000000089
:10558000007E222210100808080808080000000009
:10559000003C4242422418244242423C00000000A7
:1055A00000182442424264584040241C000000007D
:1055B000000000001818000000001818000000008B
:1055C00000000000000800000000000808040000BF
:1055D00000402010080402040810204000000000D1
:1055E000000000007F0000007F00000000000000BD
:1055F00000020408102040201008040200000000EF
:10560000003C4242464020101000181800000000E4
:10561000001C225A555555552D42221C00000000F1
:10562000000808181414243C224242E7000000003D
:10563000001F2222221E22424242221F000000009E
:10564000007C4242010101010142221C00000000D5
:10565000001F2242424242424242221F00000000FA
:10566000003F4212121E12120242423F000000008E
:10567000003F4212121E1212020202070000000036
:10568000003C2222010101712122221C00000000A5
:1056900000E7424242427E42424242E700000000AE
:1056A000003E0808080808080808083E0000000036
:1056B000007C10101010101010101010110F0000AE
:1056C000007722120A0E0A1212222277000000002E
:1056D00000070202020202020202427F00000000F2
:1056E0000077363636362A2A2A2A2A6B000000002E
:1056F00000E346464A4A52525262624700000000A6
:10570000001C2241414141414141221C0000000056
:10571000003F424242423E020202020700000000F5
:10572000001C2241414141414D53321C60000000A8
:10573000003F4242423E1212222242C700000000B5
:10574000007C4242020418204042423E0000000019
:10575000007F4908080808080808081C0000000025
:1057600000E74242424242424242423C00000000C4
:1057700000E7424222242414141808080000000004
:10578000006B494949495555362222220000000044
:1057900000E7422424181818242442E700000000DF
:1057A00000772222141408080808081C00000000D2
:1057B000007E2120101008040442423F00000078BF
:1057C0000808080808080808080808087800000001
:1057D0000202040408080810102020204040001E87
:1057E0001010101010101010101010101E000038A3
:1057F0004400000000000000000000000000000065
:1058000000000000000000000000000000FF000693
:105810000800000000000000000000000000000080
:1058200000000000003C4278444242FC00000000BE
:1058300000030202021A26424242261A0000000019
:10584000000000000038440202024438000000005A
:105850000060404040784442424264D8000000006A
:1058600000000000003C427E0202423C00000000BA
:1058700000F08808087E08080808083E00000000BC
:1058800000000000007C22221C023C42423C00003E
:1058900000030202023A4642424242E70000000090
:1058A000000C0C00000E08080808083E000000006C
:1058B000003030000038202020202020221E000050
:1058C000000302020272120A161222770000000080
:1058D000000E0808080808080808083E0000000034
:1058E00000000000007F9292929292B700000000A8
:1058F00000000000003B4642424242E70000000038
:1059000000000000003C42424242423C00000000D5
:1059100000000000001B26424242221E0207000037
:1059200000000000007844424242447840E0000019
:105930000000000000774C040404041F0000000075
:1059400000000000007C42023C40423E000000009B
:1059500000000008083E08080808083000000000A1
:105960000000000000634242424262DC000000008E
:105970000000000000E74224241408080000000092
:105980000000000000EB49495555222200000000AC
:1059900000000000007624181818246E0000000093
:1059A0000000000000E74224241418080807000043
:1059B00000000000007E22100808447E000000C0A5
:1059C000202020202010202020202020C000101087
:1059D00010101010101010101010101010100006E1
:1059E00008080808081008080808080806000C320B
:1059F000C2000000000000000000000000000000E5
:105A00000000000000000000000000000000000096
:105A10000000000000000000000000000000000086
:105A20000000000000000000000000000000000076
:105A30000000000000006000600060006000600086
:105A400060006000400020002000200000000000F6
:105A50000000600060006000000000000000000026
:105A600000006006600630039801880044000000D2
:105A70000000000000000000000000000000000026
:105A80000000000000000000000000000000000016
:105A90000000000000001002100210021002FE07B9
:105AA000FE0708020801080108010801FE07FE07B9
:105AB00004010401040104010000000000000000D2
:105AC0000000000040004000F00158034C03CC03EC
:105AD0004C0058007000E000C001C00140034C03BE
