:020000040800F2
:10000000D8170020E1000008C30A0008BF0A000852
:1000100000000000000000000000000000000000E0
:10002000000000000000000000000000DD0A0008E1
:100030000000000000000000C50A0008F70A0008E0
:10004000F3000008F3000008F3000008F3000008C4
:10005000F3000008F3000008F3000008D1090008CD
:10006000000000009D090008F3000008F3000008EC
:10007000F3000008F3000008F3000008000000008F
:10008000FD1F0008F300000800000000F300000856
:10009000F30000088D1F0008F3000008F3000008BB
:1000A000F3000008F3000008F3000008F300000864
:1000B000F300000800000000000000000000000045
:1000C000F300000800000000F30000080348854624
:1000D00000F0A0FB00480047F9300008D8170020C6
:1000E0000448804704480047FEE7FEE7FEE7FEE7D6
:1000F000FEE7FEE7F90A0008CD000008D2B201E0F1
:100100000270401C491EFBD270470022F6E710B572
:1001100013460A4604461946FFF7F0FF204610BD75
:10012000F8B502464A40D40F42004B0052085B0823
:100130009A4202D20246084611464A0023D0C30D15
:100140004A00DDB2120EAD1A202D35DA4902012621
:10015000490AF6058A19002C00D0524220214F1B73
:100160001146B9402A411018C20D9A4221D0002CE4
:1001700017D0012D08DCDA05801AD20F8019D207BA
:10018000DBB200F048F9F8BDDA05801A012340001F
:100190001B06C01880185A428018CA0F1043490025
:1001A00007E04908C2071143DA05801A80194008A0
:1001B000801800F028F9F8BD61000122511A001BD7
:1001C000F7E70122D2075140AAE70122D2075040A7
:1001D000A6E7024670B54A40D30FDB0740002DD09A
:1001E0004A002AD0010E140E000212020919400A18
:1001F000520A8418E50104465443000A120A2E04E8
:100200005043A4194219200CC543AA18120C012509
:10021000AD03521C521912047F39240400D0521C21
:10022000104301D44000491EC2B20C06C009201878
:10023000401C4008802A02D003E0002070BD400826
:100240004000002900DA0020184370BD70B5024656
:100250004A40D50F40004A00ED07400852080028E8
:1002600014D0002A12D0C40DD30D41020120C005C4
:100270005202490A520AE41A091812187D349142AE
:1002800001D3641C00E04900002C01DA002070BD9D
:100290000023914201D3891A0343400849000028F2
:1002A000F7D100290AD0914202D10121C90705E006
:1002B000914201D2012101E00121C943E005C018AA
:1002C000401900F0A0F870BD0122D207002800DB21
:1002D000101A002900DB511A814201D80120704711
:1002E000002070470122D207002800DB101A0029E5
:1002F00000DB511A814201D3012070470020704772
:10030000C217C10F504010B54018CA0796230021EC
:1003100000F081F810BD10B500229623114600F0C0
:100320007AF810BDC20F410040020123400ADB05EC
:10033000D207090EC0187F2901DA002070479629DC
:1003400003DC9623591AC84001E096398840002AF8
:10035000F4D040427047410040020122400AD205D9
:10036000090E80187F2901DA00207047962903DCE6
:100370009622511AC8407047963988407047C20F7C
:10038000D207400040080BD0C10D0723DB01C9187C
:1003900040020905400A1143C20840071143704753
:1003A000002001467047F0B51FB40646002082B019
:1003B00005464024019100901BE0019922460F461A
:1003C000304600F068FA049A059B801A994110D3D0
:1003D00010461946224600F04EFA361A8F41019710
:1003E000224601200021009F00F045FA38184D41B7
:1003F00000902046641E0028DFDC019B00982946FF
:10040000324607B0F0BD002904DA401C490001D192
:1004100040084000704770B40024050C05D110243A
:10042000000402D1002921D01124050E01D10002BF
:100430000834050F01D10001241D850F01D1800072
:10044000A41C002801DB4000641C002908D02025E2
:100450002E1B0D46F540A14000D001212943084341
:1004600001061B1B000ADB1D02D5002070BC704773
:10047000DB05181880180029F8DA401C4900F5D16E
:1004800070BC400840007047F0B507460846584029
:1004900087B0C00F049048000E4659004008490834
:1004A000BC1A884105D2384631461E4617460B46CF
:1004B00002465800400810434CD0300D03904005D0
:1004C0005900400D490D0590401A0290402872DAFB
:1004D00018030121000B09050843019004980092BC
:1004E000002805D0019952420020884100920190D5
:1004F000029840210A1A0199009800F0BCF90546BB
:100500000C466B4607CB00F0D7F9C0197141039A2E
:100510000E0D0023D71756401A467A40164344D092
:10052000049A002A2DD0029A012A039A15DC12059A
:10053000C01A914101263605001C7141D20F059E5B
:10054000D2070093019202962A46234600F0D4F97E
:1005500007B0F0BD38463146FAE71605224A0F4685
:10056000B218C01AB74101210905001C4F410018FB
:100570007F41114618187941E20F10436D1964410B
:1005800013E0E2076D0815436408C2071443039A99
:1005900001261205C01A91413605001C7141CE0793
:1005A000400830434908C01851412A46234600F00C
:1005B00096F9CDE7FFE7049801224000C117121A0F
:1005C00000238B4104983146C417381AA141EEE745
:1005D00030B40124E407634030BC55E730B4012453
:1005E000E407614030BC4FE70000E0FFF0B51FB406
:1005F00088B00B990998002448400999C00F490018
:1006000049080991C0070B990090490049080B91CE
:1006100009990898A64608431CD00B990A980843E4
:1006200018D0099801244000420D4800410D099856
:1006300024050003000B204309900B980003000BD6
:1006400020430B9050181C4940180022019014467A
:10065000104605E0002001460DB0F0BD032801DA88
:10066000034600E003239C46C11A0AAE0AE05F007D
:1006700008ADED5B4F00F75B7D430027AA187C4176
:10068000491C5B1E6145F2DD410004AB5A52210456
:10069000120C0A43240C401C0828DFDB019802904E
:1006A0000099704601910090059B049A079906985D
:1006B00000F022F9D0E700000DFCFFFFF0B50C467A
:1006C0005C4085B0E40FE40703944C000026640806
:1006D00059009446490802460296224321D06246B8
:1006E0000A431ED06200570D4A000E032303550D26
:1006F000012402462C492405781B1B0B360B40189D
:1007000023432643614600901C46501AB44103D34C
:100710000098401C009002E0921800985B4100286D
:1007200003DA0020014605B0F0BD002001210905D3
:100730000746864611E064461D46141BB54106D3A4
:100740006546521BB341744607430C43A646CD078A
:1007500040084908284392185B4105460D43EAD1F9
:100760001046184313D06046194650407140084364
:1007700006D06046101AB34106D20122002306E0DB
:1007800000220123DB0702E00122D243531000982C
:1007900074460105381C6141029C039D00196941A2
:1007A00000F09DF8BFE70000FD0300004A000903C8
:1007B0000123090B1B0519430A4B10B5520D9A4230
:1007C00002DA0020014610BD064B34339A4203DCA6
:1007D0009A1A00F060F810BD034BD21800F04BF8E5
:1007E00010BD0000FF030000CDFBFFFF10B5002986
:1007F00004DB0124E40740428C412146002B04DB4A
:100800001C460123DB075242A341994200D190428A
:1008100010BD0000064C0125064E05E0E36807CC3C
:100820002B430C3C98471034B442F7D3FFF752FCEB
:1008300098740008B874000870B50446002903D005
:1008400000202022012310E0002801D00020C04316
:10085000C046C0460DE02546D5408D4205D30D4625
:100860009540641B1D46954040191546521E002DAB
:10087000F1DC214670BD10B5202A04DB0146203A88
:100880009140002010BD914020239C1A0346E34074
:100890001943904010BD10B5202A04DB0846203AC9
:1008A000D040002110BD0B46D340D0402024A21AD6
:1008B00091400843194610BD10B5202A06DBCB171E
:1008C0000846203A1041C1170B4306E00B4613417E
:1008D000D0402024A21A91400843194610BD10B5FB
:1008E000002B08DA0024401C614192185B411A4336
:1008F00001D14008400010BDF0B51FB482B00546DC
:100900000C0003D0084604F0FFFA02E004F0FCFA01
:1009100020300246009021462846FFF7ACFF049B9A
:10092000059A04460F4618431143084314D018464D
:1009300010431BD0009840210A1A18460599FFF76A
:10094000AAFF05460E46009A05990498FFF793FF03
:10095000084305D0012004E02046394607B0F0BD29
:100960000020C11705430E432C43374300990E98CE
:100970006305401A7905E40A00220C43FD0A0A3097
:1009800002D500200146E9E70105101969410C9CD8
:100990000D9D00196941FFF7A2FFDFE780B582B026
:1009A0000020022101F066FF68B1FFE7074901203E
:1009B000019008700020009001F058FE0098019905
:1009C00001F046FFFFE702B080BDC04604000020F2
:1009D00080B5102002F09CF820B1FFE7024801F03A
:1009E000ABFFFFE780BDC046C40F002080B586B0D6
:1009F00005A9088004A90020088003AA108002909D
:100A000001AA10806B46214A1A800880FFE704A8DB
:100A1000008805A90988884224DAFFE700F038F841
:100A200003A90880684600880988884204DDFFE73A
:100A3000039869460880FFE701A8008803A9098890
:100A4000884204DAFFE7039801A90880FFE70298CB
:100A500003A9098840180290FFE70498401C04A9E4
:100A60000880D4E7029801A90988401A69460988D4
:100A7000401A0290029805A90988891EB0FBF1F07E
:100A8000029002A8008806B080BDC0460F27000073
:100A900080B582B001A900200880012001F018FD76
:100AA000FFE7022001F04AFC08B9FFE7F9E701F08F
:100AB00009FD014601A80180008802B080BDFFE762
:100AC000FEE770477047000080B5034840F2E83108
:100AD00002F0F0FC80BDC04610000020704780B5D9
:100AE00082B0014601A8017001780020022201F0C5
:100AF0003BFC02B080BD704780B584B034490868C3
:100B0000012210430860FFE7314800688007002891
:100B100001D4FFE7F8E7FFE72E4908688022104379
:100B2000086000200390FFE703987F2805D8FFE7BF
:100B3000FFE70398401C0390F6E7264908689022D7
:100B40001043086000200390FFE703987F2805D832
:100B5000FFE7FFE70398401C0390F6E7FFE71D4916
:100B60000868032290430860194A10681A4B18401D
:100B700010600868194A104008600868184A104058
:100B80000860184908680F229043086016490868F1
:100B900040F2031290430860086801220192130496
:100BA000984308600868D307984308600F490868AD
:100BB000904308600E4900200290086003F00EFC8C
:100BC00001980299C00602F015FF04B080BDC0462E
:100BD0000010024004100240FFFFF2FE0C00FF086C
:100BE000FFFFC2772C100240301002403410024048
:100BF0000810024010B588B007AC0094208006A809
:100C00000290018005A80190028004A8039003804F
:100C10002A2001F08BF90098008801F037F901983B
:100C2000008801F033F92B2001F080F90298008848
:100C300001F02CF90398008801F028F92C2001F02C
:100C400075F908B010BDB0B590B01D460B46149CA8
:100C50000FA908800EA803800DAB1A800CAA15807E
:100C60000BAD2C800AAD002400942C8009940894CC
:100C700007940694059404940394029401941B88A9
:100C80000C881B1B079312880388D21A06920988C6
:100C90000291008801900798012803DBFFE70120FB
:100CA00004900DE0079818B9FFE70020049006E0D3
:100CB0000020C0430490079840420790FFE7FFE7F9
:100CC0000698012803DBFFE7012003900DE006985A
:100CD00018B9FFE70020039006E00020C04303900E
:100CE000069840420690FFE7FFE70798069988427A
:100CF00003DDFFE70798059002E006980590FFE7FF
:100D00000AA900200880FFE70AA800880599491C65
:100D1000884232DAFFE702A8008801A909880BAAF5
:100D2000128800F02CF80799099840180990069944
:100D300008984018089009980599884209DDFFE74E
:100D400005990998401A0990049902984018029050
:100D5000FFE708980599884209DDFFE7059908989B
:100D6000401A08900399019840180190FFE7FFE7A7
:100D70000A98401C0AA90880C6E710B0B0BD80B52B
:100D800084B00B4603A9088002A8038001AB00933E
:100D90001A800A88038810461946FFF72BFF00982F
:100DA000008801F073F804B080BDB0B588B0144677
:100DB0000D4601460C9A07A8018006A90D8005ADD5
:100DC0002C8004AC238003AB1A8002AB009300227A
:100DD0001A8001AB1A8000880988059A521E049B6C
:100DE0005B1E92B29BB2FFF705FF00990698088040
:100DF000FFE702A8008804A9098888421BDAFFE7F8
:100E0000079801A90880FFE701A8008805A90988BB
:100E100088420ADAFFE703A8008801F037F8FFE705
:100E20000198401C01A90880EEE7FFE70298401CEA
:100E300002A90880DDE708B0B0BD000080B596B01B
:100E400088480290202101910022109201F01CFF9D
:100E50006420039001F0CAFB0199029801221192CB
:100E600001F012FF039801F0C1FB0298119A40F2C1
:100E7000001101F009FF039801F0B8FB112001F007
:100E800055F8782001F0B2FBB12001F04FF80520B1
:100E9000159001F02DF83C20049001F029F80498F9
:100EA00001F026F8B22001F041F8159801F020F881
:100EB000049801F01DF8049801F01AF8B32001F02D
:100EC00035F8159801F014F8049801F011F8049819
:100ED00001F00EF8159801F00BF8049801F008F8ED
:100EE000049801F005F8B42001F020F803200A90DE
:100EF00000F0FEFFC020059001F018F828200890AF
:100F000000F0F6FF082000F0F3FF0420129000F03C
:100F1000EFFFC12001F00AF8059800F0E9FFC220B8
:100F200001F004F80D200B9000F0E2FF109800F0A3
:100F3000DFFFC32000F0FAFF8D20069000F0D8FFFD
:100F40002A20079000F0D4FFC42000F0EFFF06989D
:100F500000F0CEFFEE2000F0CBFFC52000F0E6FF52
:100F60001A2000F0C5FF362000F0E0FF702000F0EE
:100F7000BFFFE02000F0DAFF129800F0B9FF222056
:100F800000F0B6FF072000F0B3FF0A2000F0B0FF2A
:100F90002E20099000F0ACFF302000F0A9FF2520A2
:100FA0000E9000F0A5FF079800F0A2FF089800F04F
:100FB0009FFF26200C9000F09BFF099800F098FFFF
:100FC0003A20149000F094FF109800F091FF1198CF
:100FD00000F08EFF0A9800F08BFF1320139000F0B2
:100FE00087FFE12000F0A2FF129800F081FF162099
:100FF00000F07EFF062000F07BFF0B9800F078FFEA
:101000002D200F9000F074FF0C9800F071FF23204A
:1010100000F06EFF27200D9000F06AFF0D9800F0A1
:1010200067FF0E9800F064FF0F9800F061FF3B200F
:1010300000F05EFF109800F05BFF119800F058FF81
:10104000129800F055FF139800F052FF149800F02A
:101050006DFF159800F04CFF292000F067FF16B0D7
:1010600080BDC04600040048F0B597B014460D4658
:1010700006461E991D9A1C9816AF01973E8015AE24
:101080000296358014AD03952C7013AC238012ABFF
:10109000188011A80490027010AA11700CAA0021E7
:1010A00005911170169909AA1180007841080EA8BF
:1010B000069001700178C80807904907401C089005
:1010C00009B907980890049B069A02990198039D14
:1010D000089E1C7874430AAE3480149C203C2C700B
:1010E0000088098812788218521E1B78CB185B1E64
:1010F00092B29BB2FFF77EFD05980BA90880FFE72F
:101100000BA800880AA90988884200DB86E011A89C
:10111000007810280BD1FFE714A80078010141489E
:1011200040180BA90988405C0FA9087012E011A8AB
:10113000007818280CD1FFE714A80078302141432B
:10114000374840180BA90988405C0FA9087000E0D7
:1011500064E0FFE70DA900200870FFE70DA8007804
:10116000072855DCFFE710A8007820BBFFE70FA891
:1011700000780DA90978C840C00728B1FFE713A877
:10118000008800F083FE04E012A8008800F07EFED4
:10119000FFE70C98411C0CA8017000780EA9097893
:1011A000B0FBF1F25143401A20B9FFE70CA900202F
:1011B00008702DE026E00FA800780DA90978C84036
:1011C000C00748B1FFE716A8008815A9098813AA27
:1011D0001288FFF7D4FDFFE71698411C16A801807E
:1011E000008809A90988401A0EA90978884208D1FF
:1011F000FFE7099816A908801598401C15A90880D2
:1012000006E0FFE7FFE70D98401C0DA90870A5E771
:10121000FFE70B98401C0BA9088071E717B0F0BDE1
:10122000FA5D00080A580008F0B58BB014460D4668
:10123000064612981199109A0AAF3E8009AE358081
:10124000089407AC238006AB1A8005AA117004A984
:101250000870FFE708980078002854D0FFE705A839
:1012600000780C2813D1FFE70AA8008809A909888B
:10127000089A07AB1B8806AC248805AD2D7804AE10
:10128000367802960195009400F040F831E005A808
:101290000078102813D1FFE70AA8008809A9098857
:1012A000089A07AB1B8806AC248805AD2D7804AEE0
:1012B000367802960195009400F01EF918E005A812
:1012C0000078182813D1FFE70AA8008809A909881F
:1012D000089A07AB1B8806AC248805AD2D7804AEB0
:1012E000367802960195009400F0FCF9FFE7FFE7DD
:1012F000FFE70898801C089005A801780A98401814
:101300000AA90880A6E70BB0F0BD0000F0B595B0C3
:1013100014460D4606461C991B9A1A9814AF3E8037
:1013200013AE3580129411AC238010AB18800FA837
:1013300002700EAA11700DAA0021009111700CAA62
:1013400011700BAA11700AAA0192118009AA0292C7
:10135000118008AA03921180149907AA11800178BC
:101360000491C80805904907401C069009B90598E2
:10137000069000980199029B039C049A069D6A437B
:1013800022800E221A800880FFE70AA8008809A997
:101390000988884200DBAAE00AA800881B21414393
:1013A0005448405C12990978884200D099E00AA814
:1013B00000881B2141434F484018407812994978D2
:1013C000884200D08DE014A8008813A909880FAACC
:1013D0001378C218521ECB185B1E92B29BB2FFF755
:1013E00009FC0DA900200870FFE70DA8007808A9E6
:1013F0000988884274DAFFE70CA900200870FFE72B
:101400000CA80078072865DCFFE70EA8007860BB11
:10141000FFE70AA800881B214143364840180DA960
:1014200009784018C0780CA90978C840C00728B1CD
:10143000FFE711A8008800F029FD04E010A800884B
:1014400000F024FDFFE70B98411C0BA80170007809
:101450000FA90978B0FBF1F25143401A20B9FFE718
:101460000BA90020087035E02EE00AA800881B2197
:101470004143204840180DA909784018C0780CA9AC
:101480000978C840C00748B1FFE714A8008813A92D
:10149000098811AA1288FFF772FCFFE71498411C13
:1014A00014A80180008807A90988401A0FA90978A3
:1014B000884208D1FFE7079814A908801398401CB8
:1014C00013A9088006E0FFE7FFE70C98401C0CA971
:1014D000087095E7FFE70D98401C0DA9087084E798
:1014E000FFE7FFE70A98401C0AA908804DE715B0FE
:1014F000F0BDC0466A700008F0B595B014460D46C0
:1015000006461C991B9A1A9814AF3E8013AE35807C
:10151000129411AC238010AB18800FA802700EAA91
:1015200011700DAA0021009111700CAA11700BAA64
:1015300011700AAA0192118009AA0292118008AAC8
:1015400003921180149907AA118001780491C808A8
:1015500005904907401C069009B905980690009827
:101560000199029B039C049A069D6A4322800922EA
:101570001A800880FFE70AA8008809A9098888421C
:1015800000DBAAE00AA80088232141435448405CBC
:1015900012990978884200D099E00AA8008823218E
:1015A00041434F484018407812994978884200D00A
:1015B0008DE014A8008813A909880FAA1378C2180F
:1015C000521ECB185B1E92B29BB2FFF713FB0DA904
:1015D00000200870FFE70DA8007808A90988884254
:1015E00074DAFFE70CA900200870FFE70CA8007868
:1015F000072865DCFFE70EA8007860BBFFE70AA8B4
:10160000008823214143364840180DA90978401825
:10161000C0780CA90978C840C00728B1FFE711A815
:10162000008800F033FC04E010A8008800F02EFCD5
:10163000FFE70B98411C0BA8017000780FA90978EF
:10164000B0FBF1F25143401A20B9FFE70BA900208B
:10165000087035E02EE00AA8008823214143204885
:1016600040180DA909784018C0780CA90978C8401D
:10167000C00748B1FFE714A8008813A9098811AA78
:101680001288FFF77CFBFFE71498411C14A8018027
:10169000008807A90988401A0FA90978884208D14B
:1016A000FFE7079814A908801398401C13A9088025
:1016B00006E0FFE7FFE70C98401C0CA9087095E7CF
:1016C000FFE70D98401C0DA9087084E7FFE7FFE7CE
:1016D0000A98401C0AA908804DE715B0F0BDC04625
:1016E000E4710008F0B595B014460D4606461C9905
:1016F0001B9A1A9814AF3E8013AE3580129411AC29
:10170000238010AB18800FA802700EAA11700DAACA
:101710000021009111700CAA11700BAA11700AAA75
:101720000192118009AA0292118008AA03921180E5
:10173000149907AA118001780491C80805904907F7
:10174000401C069009B90598069000980199029BE3
:10175000039C049A069D6A43228005221A80088011
:10176000FFE70AA8008809A90988884200DBAAE0E7
:101770000AA800884B2141435448405C12990978DB
:10178000884200D099E00AA800884B2141434F4885
:101790004018407812994978884200D08DE014A80A
:1017A000008813A909880FAA1378C218521ECB18F3
:1017B0005B1E92B29BB2FFF71DFA0DA900200870C4
:1017C000FFE70DA8007808A90988884274DAFFE7C6
:1017D0000CA900200870FFE70CA80078072865DC3A
:1017E000FFE70EA8007860BBFFE70AA800884B213E
:1017F0004143364840180DA909784018C0780CA913
:101800000978C840C00728B1FFE711A8008800F098
:101810003DFB04E010A8008800F038FBFFE70B98C0
:10182000411C0BA8017000780FA90978B0FBF1F2F8
:101830005143401A20B9FFE70BA90020087035E09A
:101840002EE00AA800884B214143204840180DA9EA
:1018500009784018C0780CA90978C840C00748B179
:10186000FFE714A8008813A9098811AA1288FFF7B6
:1018700086FAFFE71498411C14A80180008807A984
:101880000988401A0FA90978884208D1FFE707980C
:1018900014A908801398401C13A9088006E0FFE7EC
:1018A000FFE70C98401C0CA9087095E7FFE70D981E
:1018B000401C0DA9087084E7FFE7FFE70A98401C69
:1018C0000AA908804DE715B0F0BDC0461F73000897
:1018D000F0B58DB014460D46064614981399129A29
:1018E0000CAF3E800BAE35800A9409AC238008AB68
:1018F0001A8007AA117006A90870FFE70A980078F5
:1019000000B3FFE70CA8059000880BA909880A9A84
:10191000127809AB1B8808AC248807AD04952D7894
:1019200006AE3678029601950094FFF79DFB049869
:101930000599007842080C98801808800A98401C85
:101940000A90DBE70DB0F0BD80B59AB000200F9093
:10195000199018A90870179016901590149013906C
:101960001290119010908448006884490968FEF72D
:1019700028FC01460846FEF7D3FBFEF700FD0246B1
:101980000B467F4910A80E9003F0AAFA0E9A0F9BFF
:1019900002931020019040F2E070009005206A212F
:1019A000FFF796FF0F9817901690159014901390CC
:1019B00012901190109001F0C7F819901998C00872
:1019C0007D2826D3FFE71998FEF7A5FC6E49FEF7A0
:1019D0003DFCFEF7D4FC02460B466C4910A80C9067
:1019E00003F07EFA0C9A00230D93029310200190CD
:1019F00040F2E070009037206A21FFF769FF0D98F0
:101A000017901690159014901390129011901090BA
:101A10001CE0199A5B4910A80A9003F061FA0A9A2F
:101A200000230B9302931020019040F2E07000908D
:101A300037206A21FFF74CFF0B98179016901590EE
:101A400014901390129011901090FFE701F0AAF8F3
:101A5000014618A80170007801280CD1FFE7002387
:101A60000293102001904A4800904B4A762024218E
:101A7000FFF7DAFB0BE00023029310200190FA48F5
:101A80000090444A76202421FFF7CEFBFFE701F0C7
:101A900073F840F2E831884221DBFFE701F06CF88F
:101AA00040F2E831B0FBF1F23D4910A8089003F094
:101AB00017FA089A00230993029310200190EA482C
:101AC00000906E204821FFF703FF099817901690A9
:101AD0001590149013901290119010901DE001F049
:101AE0004BF802462D4910A8069003F0F9F9069A22
:101AF00000230793029310200190DB4800906E2092
:101B00004821FFF7E5FE079817901690159014905E
:101B10001390129011901090FFE701F027F8FEF754
:101B2000EFFB039001F038F8FEF7EAFB014603985B
:101B3000FEF78CFB1B49FEF74CFBFEF7F3FB02465E
:101B4000194910A8049003F0CBF9049A00230593D7
:101B5000029310200190C44800906E206A21FFF784
:101B6000B7FE059817901690159014901390129048
:101B7000119010901AB080BD381000203C10002049
:101B8000FC6F00080470000800007A441A70000816
:101B9000E0FF00005A7000082A7000082370000857
:101BA000137000080000C8420B70000870B59EB0AA
:101BB0001DA813900024149404801C941B941A9460
:101BC00019941894179416941594029410200B905D
:101BD000019040F2E0700090A14A0A20214623467D
:101BE000FFF722FB9F4915A80D9003F079F90D9A94
:101BF0000B98029401909C480C9000906E200E90DF
:101C000021462346FFF764FE0E981C941B941A94F9
:101C10001994189417941694159402940C250F9502
:101C20000195924910910091914A1421914B129380
:101C3000FFF7FAFA0D9890490A9103F051F90B9BBE
:101C40000C990D9A0E980294019300912421234639
:101C5000FFF73EFE0E981099129B1C941B941A9449
:101C60001994189417941694159402940195009160
:101C7000824A3821FFF7D8FA0A990D9803F030F913
:101C80000B9B0C990D9A0E98029401930091482198
:101C90002346FFF71DFE0A990D981C941B941A9475
:101CA0001994189417941694159403F019F90D9A31
:101CB0001099129B0E980294019500915C2111914C
:101CC000FFF706FE0F9A10981199129B1C941B9413
:101CD0001A941994189417941694159402940192D6
:101CE0000090674A7620FFF79FFA0A990D9803F053
:101CF000F7F80B9B0C990D9A0E98029401930091A2
:101D00006A212346FFF7E4FD0F9A10981199129B60
:101D10001C941B941A94199418941794169415945F
:101D2000029401920090574A0520FFF77DFA0F9A1E
:101D300010981199129B029401920090524A3720F8
:101D4000FFF772FA139914980880FFE71DA800881E
:101D500080280CDCFFE71DA801886A20424AFFF7B3
:101D60000EF8FFE71D98801C1DA90880EEE71DA94D
:101D700000200880FFE71DA8008863280DDCFFE72E
:101D80001DA80088512140F2E072FEF7F8FFFFE73E
:101D90001D98401C1DA90880EDE71DA91E20088084
:101DA000FFE71DA8008850280DDCFFE71DA801886B
:101DB000002040F2E072FEF7E2FFFFE71D98401CB2
:101DC0001DA90880EDE71DA900200880FFE71DA8D8
:101DD000008809281CDCFFE71D990A20079048436A
:101DE000801C80B25221089140F2E0720992FEF705
:101DF000C6FF07980899099A1D9B5843C01C80B2DA
:101E0000FEF7BDFFFFE71D98401C1DA90880DEE717
:101E10001DA900200880FFE71DA8008809281CDCF8
:101E2000FFE71D990A2004904843801C80B253218B
:101E3000059140F2E0720692FEF7A1FF0498059921
:101E4000069A1D9B5843C01C80B2FEF798FFFFE71F
:101E50001D98401C1DA90880DEE71EB070BDC0465D
:101E60005F700008F56F0008E0FF00000F780000C9
:101E70002F700008FFFF0000EE6F0008517000088F
:101E800041700008387000084870000880B582B0C2
:101E9000014601A80180694600220A804078087046
:101EA000019848703748802100F0EEFEFFE7364881
:101EB000022102F0D5F808B9FFE7F8E76846017893
:101EC000314802F083F8FFE72F48022102F0C8F8FA
:101ED00008B9FFE7F8E7684641782B4802F076F842
:101EE00028488021012200F0CFFE02B080BDC0460C
:101EF00080B582B001A9087022488021002200F03C
:101F0000C3FEFFE72048022102F0AAF808B9FFE764
:101F1000F8E701A801781C4802F058F81948802118
:101F2000012200F0B1FE02B080BDC04680B586B08F
:101F300005A908701348039040210022049200F084
:101F4000A3FE0398049A802100F09EFEFFE70E484E
:101F5000022102F085F808B9FFE7F8E705A8017843
:101F6000094802F033F8074801904021012202920B
:101F700000F08AFE0198029A802100F085FE06B0EA
:101F800080BDC046000400480030014080B51548BF
:101F9000007802280ED1FFE713480188491C018010
:101FA00000881249884204DBFFE70F4900200880BF
:101FB000FFE7FFE70E48007802280ED1FFE70D4843
:101FC0000188491C018000880849884204DBFFE73A
:101FD000084900200880FFE7FFE70748012102F0D9
:101FE00014FF80BD050000201C10002010270000F9
:101FF0000E000020D41100200044014080B5284884
:10200000022102F00BFF012848D1FFE72548008894
:1020100050B9FFE72248002102F02CFA234908803A
:1020200020490120088034E01E48008801282FD173
:10203000FFE71B48002102F01DFA01461A48018003
:1020400000881A490988884208DDFFE71648008899
:1020500016490988401A1749086009E013480188A1
:1020600011480088401A1249401812490860FFE7D9
:1020700010490A681048B0FBF2F0104A10600B4A91
:1020800000201080084A1080064A10800860FFE790
:10209000FFE70348022102F0B8FEFFE780BDC0461B
:1020A00000040040B00F0020D2110020D011002009
:1020B000FFFF0000B40F002040420F00D80F0020A7
:1020C00081B0014668460170007840B200280DD406
:1020D000FFE76846007841B21F200A46024001200F
:1020E000904049098900024A8850FFE701B07047D3
:1020F00000E100E070B582B0024601A802700091D4
:10210000007840B2002817D4FFE701A9087840B250
:102110000322D3431840184A8058097849B28C07E3
:10212000E50EFF24AC40A043009CA401E4B2AC4007
:102130002043194088501AE001A908780F24204054
:1021400008380322D34318400A4A8058097849B214
:102150008D07EE0EFF25B540A843009DAD01EDB201
:10216000B54028432140083919408850FFE702B0A4
:1021700070BDC0461CED00E000E400E0E3490868E3
:10218000082210430860FFE7E048006800070028C5
:1021900001D5FFE7F8E7DD4908680422104308602D
:1021A000FFE7DA4800684007002801D5FFE7F8E7B5
:1021B0007047C04683B0024602A8027001910078C1
:1021C0000090012804D0FFE7009802280FD01DE0FE
:1021D000B7490A680F20000582430A60019A120578
:1021E0000D4BD21802400868104308600FE00949FF
:1021F0000A680320000582430A60019A1205064B13
:10220000D218024008681043086000E0FFE703B0FE
:102210007047C046382401400000F0FF81B00090B4
:10222000009838B1FFE7EA49086840F60002104319
:10223000086006E0E649086840F60002904308603E
:10224000FFE701B07047C046E149086840F200125C
:10225000104308607047C046DD480068C00730B9C9
:10226000FFE7DB490868012210430860FFE7704779
:1022700082B001AA1070684601700078D0B1FFE703
:1022800001A80078C00738B1FFE7D14908680122EA
:10229000120510430860FFE701A8007880070028B6
:1022A00007D5FFE7CA49086848F2000210430860F2
:1022B000FFE719E001A80078C00738B1FFE7C4497B
:1022C00008680122120590430860FFE701A8007822
:1022D0008007002807D5FFE7BD49086848F20002DB
:1022E00090430860FFE7FFE702B0704783B0024603
:1022F00002A80270019100780090012804D0FFE745
:10230000009802280BD015E0B14908680722520452
:1023100090430860019A0868104308600BE0AC49DC
:10232000086847F2000290430860019A0868104369
:10233000086000E0FFE703B07047C04682B001903C
:10234000694600200870074800680199084204D0D7
:10235000FFE7694601200870FFE76846007802B091
:102360007047C0460024014010B585B0034604A85C
:10237000037003AB197002920078052818D8FFE7A4
:102380004D490868019004AB1C7805200246624361
:102390001F249440019AA243019203AA12781B7849
:1023A000584382400198104301900198086040E032
:1023B00004A800780B281AD8FFE73E490868019066
:1023C00004AB1C780520024662431E3A1F24944049
:1023D000019AA243019203AA12781B7858431E382F
:1023E00082400198104301900198086020E004A801
:1023F00000780F281AD8FFE72D490868019004AB30
:102400001C780520024662433C3A1F249440019AFE
:10241000A243019203AA12781B7858433C388240A9
:102420000198104301900198086000E0FFE7FFE782
:10243000FFE703A80078092817D8FFE720490868B4
:10244000009003AB1C7803200246624307249440AB
:10245000009AA2430092029A1B7858438240009847
:1024600010430090009808601FE003A8007812282D
:1024700019D8FFE711490868009003AB1C780320C6
:10248000024662431E3A07249440009AA2430092F7
:10249000029A1B7858431E388240009810430090DF
:1024A0000098086000E0FFE7FFE705B010BDC046F8
:1024B0002C24014030240140342401400C240140EC
:1024C000102401400148006880B270474C2401404C
:1024D00081B00146684601700078C00738B1FFE757
:1024E0003B4908680122920510430860FFE76846EF
:1024F00000788007002807D5FFE7354908680122E2
:10250000520510430860FFE701B0704708240140FE
:1025100082B0019068460170007830B3FFE701A8EF
:102520004078C00738B1FFE72449086840F200123C
:1025300010430860FFE701A840784007002807D54E
:10254000FFE71E49086840F2004210430860FFE7B9
:1025500001A800788007002806D5FFE71C49086815
:10256000022210430860FFE725E001A84078C00779
:1025700038B1FFE71149086840F200129043086043
:10258000FFE701A840784007002807D5FFE70B497F
:10259000086840F2004290430860FFE701A8007815
:1025A0008007002806D5FFE7094908680222904302
:1025B0000860FFE7FFE702B07047C046042401400F
:1025C000034908680122D205104308607047C046DD
:1025D0000824014080B5022001F062FC024840F26C
:1025E000E831FDF792FD80BD1000002080B584B079
:1025F00003900398FDF78FFE18490968FDF7E9FD80
:10260000FDF7A9FE16490860164900200860164922
:1026100001200860FFE7144800680290FFE70020EF
:1026200002A90978C907019041B1FFE702A88078A3
:1026300001210840414248410190FFE70198C0074D
:102640000028E8D1FFE708490868012290430860A4
:1026500004490020086004B080BDC046B80F0020C7
:1026600014E000E018E000E010E000E081B0014676
:1026700068460170007814214143AE4A885801230E
:102680009843885001B0704781B001466846017098
:10269000007814214143A74A8858012318438850E1
:1026A00001B0704781B0014668460170007814217E
:1026B0004143A04A885820231843885001B07047EE
:1026C000B0B581B001466846017001781422134606
:1026D0004B43984C19590125A943195101781346C8
:1026E0004B43002119510478134663434F4C195151
:1026F0000478134663434B4C195103785A434A4BB1
:10270000D150007880000F22824059490868104358
:10271000086001B0B0BDC046B0B584B0024603A8A1
:102720000090027002910078FFF7A0FF009B0298D2
:1027300000681C7814210A4662433A4C10510298F2
:1027400080681C780A466243374C10510298008A10
:102750001C780A466243354C10511A78084650439B
:10276000744A80580190019843F60074A043019088
:1027700002984468C5682C4340690443019820438B
:10278000019001981B78594388500298007E0128D7
:102790000AD1FFE703A8007814214143654A88580D
:1027A00040231843885009E003A8007814214143CE
:1027B000604A8858402398438850FFE70298407E3B
:1027C00001280AD1FFE703A8007814214143594AA0
:1027D000885880231843885009E003A80078142102
:1027E0004143544A8858802398438850FFE7029811
:1027F000807E50B9FFE703A80078142141434D4A79
:10280000885810239843885009E003A800781421C1
:102810004143484A8858102318438850FFE704B0C2
:10282000B0BDC04610000240140002400C0002403F
:1028300082B0024601A802700091009B007814212A
:1028400041433C4A88581843885002B07047C046FC
:1028500082B0024601A802700091009A00788000C0
:102860008240034908681043086002B07047C046C0
:102870000400024086B004AA107003910020029068
:10288000019003980090022808D0FFE700980428E0
:1028900016D0FFE70098082824D035E024480168C6
:1028A000039A04A803789B009A4011400191017893
:1028B000142048431F49405802210840029024E058
:1028C0001B480168039A04A803789B009A401140B2
:1028D00001910178142048431649405804210840CA
:1028E000029012E012480168039A04A803789B0042
:1028F0009A40114001910178142048430D494058F5
:1029000008210840029000E0FFE7019838B1FFE796
:10291000029820B1FFE705A90120087003E005A98E
:1029200000200870FFE705A8007806B07047C04691
:10293000000002400800024080B582B00190019979
:102940000868496800F0B2F9C0B9FFE72748007885
:10295000A0B9FFE725490878401C087024490020E9
:10296000087001998868C96800F0A0F9012804D1AD
:10297000FFE71F4901200870FFE732E0019908686E
:10298000496800F093F901282AD1FFE71748007839
:10299000012825D1FFE715490020087001998868B2
:1029A000C96800F083F948B9FFE7114800780128A9
:1029B00004D1FFE701990220087410E001998868AA
:1029C000C96800F073F9012808D1FFE708480078CA
:1029D00020B9FFE7019901200874FFE7FFE7FFE74F
:1029E000FFE7102000F08CF802B080BDC10F00207E
:1029F000C00F002010B584B0009101460098069CDD
:102A0000039002920193039808600298486001982D
:102A100088600698C8600320087404B010BD0000E8
:102A200085B0049003A8017002A90A70049B304A83
:102A3000116899431160049B2E4A116899431160F3
:102A4000049B2D4A116899431160049B2B4A11681D
:102A5000994311600078019020B1FFE701980128A7
:102A600006D00BE0049A224908681043086006E08B
:102A7000049A204908681043086000E0FFE702A8B4
:102A80000078009003282FD800998A0001A08018B0
:102A90008746C04600F006B800F00FB800F018B83E
:102AA00000F021B8049A1449086810430860049A99
:102AB000124908689043086017E0049A0E490868B4
:102AC00090430860049A0D490868104308600CE0C0
:102AD000049A0949086810430860049A074908687D
:102AE0001043086001E0FFE7FFE705B07047C0460C
:102AF0000004014004040140080401400C040140AA
:102B000081B0009000980C49086001B07047C04641
:102B100082B00090084800680099084204D0FFE79E
:102B200001A90120087003E001A900200870FFE757
:102B300001A8007802B070471404014001480078F1
:102B40007047C04604000020014800687047C04636
:102B5000D80F0020014800887047C0461C10002094
:102B6000014800787047C0460600002001480088F0
:102B70007047C0460800002081B0684600210180EF
:102B800007490A880349B1FBF2F10180008801B0CE
:102B90007047C04640420F00014800887047C04659
:102BA0000A000020014800787047C0460C00002051
:102BB000014800787047C0460D0000200148008899
:102BC0007047C046D411002086B00590049103924E
:102BD0000598006A01900598406A009002A90020BB
:102BE0000880FFE702A8008807281DD8FFE702A891
:102BF00001880398C840C00780B1FFE702A8018898
:102C000089000F228A40019991430191049900881B
:102C100080008140019808430190FFE7FFE7029898
:102C2000401C02A90880DDE702A908200880FFE710
:102C300002A800880F281FD8FFE702A80188039880
:102C4000C840C00790B1FFE702A801888900203979
:102C50000F228A40009991430091049900888000D6
:102C600020388140009808430090FFE7FFE7029872
:102C7000401C02A90880DBE70198059908620098CA
:102C80000599486206B0704783B00290019168468A
:102C90000270007820B1FFE701980299886103E093
:102CA000019802998862FFE703B0704783B00190F2
:102CB0000091019800690099084204D0FFE702A939
:102CC0000120087003E002A900200870FFE702A8B5
:102CD000007803B0704787B0069005910492039383
:102CE0000698006801900698C068009002A900202C
:102CF0000880FFE702A800880F282BD8FFE702A86A
:102D000001880398C840C007F0B1FFE702A8018816
:102D10004900032213468B40019999430191059B79
:102D2000018849008B4001991943019101884900AC
:102D30008A400099914300910499008840008140A5
:102D4000009808430090FFE7FFE70298401C02A9A3
:102D50000880CFE701980699086000980699C86036
:102D600007B0704710B586B0059004A801700392B3
:102D700002930078012806D1FFE7029A0599486876
:102D80001043486005E0029A0599486890434860FE
:102D9000FFE705988068009001A900200880FFE700
:102DA00001A800880F281DD8FFE701A80188029814
:102DB000C840C00780B1FFE701A80188490003228D
:102DC0008A40009991430091039900884000814016
:102DD000009808430090FFE7FFE70198401C01A915
:102DE0000880DDE700980599886006B010BD10B531
:102DF00084B00091014600980390029201A80370EC
:102E0000039808600298486001984872FF20087291
:102E1000002088720873C872487304B010BD80B572
:102E200082B001900199FF200872019908684968F1
:102E3000FFF73CFF0199497A88420ED1FFE70199DB
:102E4000887A401C88720198807A782804DBFFE732
:102E5000019978208872FFE74AE00198807A642817
:102E600008DBFFE70198407B20B9FFE7019930209C
:102E7000087210E00198807A02280BDBFFE70199C5
:102E8000087B401C087301992820C8720199012011
:102E90004873FFE7FFE70199002088720198C07A24
:102EA00028B3FFE70199C87A401EC8720198C07A1A
:102EB00000281BDCFFE70198007B012804D1FFE715
:102EC00001991020087209E00198007B022804D1C2
:102ED000FFE7019920200872FFE7FFE70199002032
:102EE000C8720199087301994873FFE7FFE7FFE78C
:102EF00002B080BD80B58AB0024609A8028008AA47
:102F0000117007AA002111800691008842F2000189
:102F100088421DD1FFE708A80078102816D1FFE7E6
:102F2000FFF740FE02280CD1FFE7FFF735FE00F067
:102F3000F1FFFFF71BFE00F0DBFF012000F0FAFFBE
:102F400003E0022000F0F6FFFFE700E0FFE7B8E053
:102F500009A8008844F20001884237D1FFE708A899
:102F60000078102830D1FFE7FFF700FEFDF7C8F921
:102F70000590FFF711FEFDF7C3F901460598FDF72F
:102F800065F90690FFF708FE014607A80180018851
:102F90004908018000887C2805DCFFE707A940F28A
:102FA000E8300880FFE707A80490008800F0B2FF2F
:102FB00004980088FDF7A4F90699FDF70AF9FDF7D2
:102FC000B1F900F095FF00E0FFE779E009A800887B
:102FD00048F20001884255D1FFE708A80078039025
:102FE000102804D0FFE70398202829D048E0FFF7F5
:102FF000D3FDFDF785F93549FDF7EBF80190FFF7B3
:10300000B5FDFDF77DF901460198FDF789F80690B9
:1030100006980290FFF7C0FDFDF772F9014602988D
:10302000FDF752F930B9FFE7FFF7B6FDFDF773F989
:103030000690FFE70698FDF775F900F059FF20E0CC
:10304000FFF794FDFDF75CF90090FFF7A5FDFDF794
:1030500057F91D49FDF7BDF801460098FDF760F8E6
:10306000069006980021FDF73DF918B9FFE700200A
:103070000690FFE70698FDF755F900F039FF00E0EC
:10308000FFE71CE009A8008840F20021884215D122
:10309000FFE708A8007810280ED1FFE7FFF760FDD2
:1030A000022804D1FFE7012000F018FF03E002200E
:1030B00000F014FFFFE700E0FFE7FFE7FFE7FFE7AF
:1030C000FFE70AB080BDC0460AD723BD0AD7233D1B
:1030D00010B584B00091014600980390029201A8B7
:1030E0000370039888600298486001984870002037
:1030F000087004B010BD000010B5BAB000201790E1
:10310000399038A9088037A9088036A91491088019
:1031100035A9087034A9087001F07AF900F04CFA6A
:1031200000F00CFB00F0FCF900F0F0FB00F04AFBB3
:1031300000F0B4FB179B31A8D3490D9144F2000273
:103140000F92FFF7C5FF0D99179BD04A0E92339847
:10315000906032985060319810602EA848F20002BA
:103160001092FFF7B5FF0E99179B309848612F9882
:1031700008612E98C8602AA8C549129142F200023F
:10318000FFF735FE0F9A1299179BC24C11942D9898
:10319000E0602C98A0602B9860602A98206026A898
:1031A000FFF725FE109A1299179B2998E06128983D
:1031B000A061279860612698206122A8FFF717FE7A
:1031C000119A1299179B2598D0622498906223989F
:1031D0005062229810621EA840F20022FFF707FEFC
:1031E0001199129B2198C863209888631F9848639F
:1031F0001E98086308201590009019A813901022BB
:1032000016921946FFF7F6FB1399A3480CC90CC098
:103210001CC91CC01120FDF762FCC820FDF7E6FBAD
:103220001499088040F2E830FFF7E0F9FDF706FE58
:1032300017990091A02280230846FDF7B6FD159846
:1032400017990291182201920091944A2321944BDC
:103250001893FEF73DFB16991798189B0290019161
:103260000090904A1C204621FEF732FB16991798D1
:10327000189B0290019100908B4A30205A21FEF752
:1032800027FBFFE7824842F20001FFF70FFDA8B1DC
:10329000FFE77F4844F20001FFF708FD70B1FFE748
:1032A0007B4848F20001FFF701FD38B1FFE778489D
:1032B00040F20021FFF7FAFC20B9FFE7C820FFF732
:1032C00095F900E0DEE700210091A0228023084666
:1032D000FDF76BFDFEF76AFC0320FDF700FCFFF72E
:1032E00079F9FDF7F1FB714801F01FFC704801F01E
:1032F0001CFCFFE7FFF72EFC38A90C910880FFF7B4
:103300005DFC01460C9837AA118000880A2814DB5E
:10331000FFE760480B90FFF782FD0B981030FFF736
:103320007EFD0B982030FFF77AFD0B983030FFF7C9
:1033300076FD002000F0C8FDFFE737A8008840F2C6
:10334000F411884222DBFFE701200A9000F0B2FD71
:103350000A9800F01DFEFFF703FC014634A8017037
:103360000078022805D1FFE736A8008800F054FB5A
:10337000FFE7FEF7E9FA002000F014FE02200990B2
:1033800000F098FD099800F003FEFFE74148007A3D
:10339000FF280AD0FFE73F4908918888097AFFF79C
:1033A000A9FD0899FF200872FFE73A48007EFF2830
:1033B0000AD0FFE737490791888A097EFFF79AFD0F
:1033C0000799FF200876FFE732482821405CFF2854
:1033D0000DD0FFE72F490691888C28220592895C41
:1033E000FFF788FD059A0699FF208854FFE72948D2
:1033F0003821405CFF280DD0FFE726490491888ED4
:1034000038220392895CFFF775FD039A0499FF2027
:103410008854FFE72048007C032833D0FFE71E488C
:10342000007C012815D1FFE7FFF7C2FB014635A854
:1034300001703599491E01700078012804DCFFE70E
:1034400035A901200870FFE735A8007800F096FD47
:1034500014E0FFF7ADFB014635A801703599491C12
:1034600001700078152804DBFFE735A914200870E7
:10347000FFE735A8007800F081FDFFE7064903204B
:103480000874FFE736E7C046000800482010002017
:1034900000040048DC0F0020C40F0020CA6F0008A1
:1034A000FFFF0000E06F0008D76F000800440140F4
:1034B0000004004080B58AB00990089140F20050A5
:1034C00000F0B6FC09200021009100F07DFA009880
:1034D000FFF7F6F800981149019101A90876099AB9
:1034E000039201224A7640F20012029240F2004218
:1034F00004928876089A059242F200020692FFF73B
:103500000BF90098FFF7CEF80098FFF7BDF8009888
:103510000221FFF78DF90AB080BDC0464C2401405E
:1035200080B586B0DB4800F083FC224800F080FCC8
:103530000920019000F0B6FB0198C0060321039119
:10354000002202920823FFF7C6FB0220049001210B
:103550000591FEF7DDFF029940F20010FEF7D8FF5B
:10356000029940F20040FEF7D3FF0298FEF756FEA4
:1035700005990846FEF71EFE02980399049AFEF785
:10358000F3FEFFF71DF8059807214904FEF7AEFE8C
:1035900005990846FEF76CFEFEF75EFE0598FFF7FC
:1035A00025F8FEF7EBFDFEF74FFE0598FEF790FFBE
:1035B00006B080BD0906000080B58CB05B4800F005
:1035C00037FC5B4800F034FC40F2006000F030FC57
:1035D0005848019044F20001009101220992FFF73E
:1035E00053FB0198099A48F200010291FFF74CFB46
:1035F000099A5148069020210391FFF745FB069850
:10360000099A40210491FFF73FFB0698099A80210F
:103610000591FFF739FB0698099A40F200110791CE
:10362000FFF732FB009B0198099900220A92FFF7ED
:1036300052FB0198029B09990A9AFFF74CFB0698E6
:10364000099A0A9942F20003FFF745FB009B06988E
:10365000099A0A99FFF73FFB029B0698099A0A9973
:10366000FFF739FB0698099A0A9940F20023FFF701
:1036700032FB0698099A0A990823FFF72CFB039B53
:10368000069809990A9AFFF726FB049B0698099960
:103690000A9AFFF720FB059B069809990A9AFFF7FB
:1036A0001AFB0698079B09990A9AFFF714FB0698DC
:1036B000099A0A9910230B93FFF70DFB009B0198C1
:1036C0000A9903220892FFF74DFB0198029B089A82
:1036D0000A99FFF747FB039B0698089A0A99FFF798
:1036E00041FB049B0698089A0A99FFF73BFB059B50
:1036F0000698089A0A99FFF735FB0698079B089ADF
:103700000A99FFF72FFB0899072000F05DF9099847
:10371000042100F097FD0A990B980222FFF780F927
:103720000B98FFF7EDF90CB080BDC0461305000003
:1037300012050000000800480004004810B58EB0D3
:103740009D4800F075FB1D4800F072FB0920C00683
:10375000019000210491A0220292FFF735FA01980E
:10376000029B049A0221FFF7B6FA0198029B049982
:1037700003220392FFF7F6FA1148069000F04CFC82
:1037800007A8059000F048FD039B049A0599069848
:103790004CF20004089440F20414079440F20074C0
:1037A00009940C9340F200230A930D920B9200F0BF
:1037B00097FC069800F000FC0EB010BD0C0600004F
:1037C0000030014010B590B07B4800F031FB40F272
:1037D000106000F02DFB0920C00601900221049129
:1037E0000022069204230293FFF775FA0198029BC8
:1037F00006990322FFF7B6FA0198029A0699FFF795
:10380000E3F92548089001F013F909A8039001F0A5
:1038100053FB0399069A089847230B804A808A80B5
:10382000394B0B93CA800A7301F088F90DA80590F3
:1038300001F0EDF8049B059A069908980124079475
:103840001480518093800823D38040F200131381A9
:1038500040F20023538100F097FE0699089840F249
:10386000F41201F05BF806990898602201F006F85E
:10387000069A0898114601F07BF8089800F0E8FDD8
:103880000799089801F0FFFA089801F045F910B07F
:1038900010BDC046110500000040014080B588B051
:1038A000174800F0C5FA1748039001F0C1F80398D3
:1038B00001220292114601F0CEFA04A8019001F013
:1038C000FBFA0199039847220A8000224A808A80E5
:1038D000E94B0693CA800A7301F030F90299039804
:1038E00001F093FA1520022100F06EF80299039876
:1038F00001F081FA039801F00FF908B080BDC046CD
:103900001106000000440140E703000080B58EB0BE
:10391000294800F08DFA294800F08AFA0920C006EB
:103920000090022106910022049240230193FFF7A8
:10393000D2F90098019B04990322FFF713FA00982B
:10394000019A01210391FFF73FF90399102000F03C
:103950003BF81B48079001F06BF808A8029001F0B3
:10396000ABFA0299049A079847230B804A808A8011
:10397000144B0A93CA8001F0E1F80CA8059000F0FE
:10398000F4FD039B0499059A079811805380918058
:10399000D18001F051F9079800F05AFD0699079877
:1039A00001F033FA0699079801F025FA079801F01B
:1039B000B3F80EB080BDC04611050000010700003D
:1039C00000040040FFFF000080B584B00A460146B5
:1039D00003A80190017002A90A70007840B209782A
:1039E000FEF788FB0198007840B2FEF769FB04B04F
:1039F00080BD000082B00190009101980099044AB6
:103A00001140084303490860BFF34F8F02B070476D
:103A100080FFFF1F08ED00E010B590B00FA90880EF
:103A20000EA9002008800DA908800CA908800BA908
:103A300008800A908F480990FFF780F8012800D08D
:103A400015E10EA900200880FFE70EA800888A492A
:103A5000884260DCFFE70EA8008841008E48405A8B
:103A6000FCF74EFC07900FA80088FCF749FC0146C4
:103A70000798FCF7EBFB8949FCF7ABFB8249FCF7A5
:103A8000A8FBFCF74FFC02460CA9088843007B48C2
:103A9000C252099A089209884900405AFCF730FC42
:103AA00001460898FCF710FC48B9FFE70CA800880D
:103AB00041007248405AFCF72EFC099018E00A9821
:103AC00006900CA8008841006C48405AFCF718FC8E
:103AD00001460698FCF706FC48B9FFE70CA80088E9
:103AE00041006648405AFCF716FC0A90FFE7FFE7E2
:103AF0000CA908884300614AD45A5F20001BD052A9
:103B00000C98401C0880FFE70E986549097840181A
:103B10000EA9088099E70EA900200880FFE70EA8EB
:103B200000885549884226DCFFE70EA8008841003E
:103B30005248405A272818DCFFE70EA800884000AA
:103B40004E494018808829280FDBFFE70EA800881F
:103B50004B49884204DBFFE70DA90020088003E001
:103B60000E980DA90880FFE705E0FFE70E98401CBE
:103B70000EA90880D3E70EA900200880FFE70EA851
:103B80000088632811DCFFE70DA800880EA90988CA
:103B9000401842003948805A4A003A498852FFE7A3
:103BA0000E98401C0EA90880E9E7364800880BA94A
:103BB00008800EA901200880FFE70EA80088612870
:103BC0002BDCFFE70EA8039000884100314B595AC7
:103BD000421C54001B5B0024009492B2FDF733F8A2
:103BE000039800880BA905910988421C4400254BC5
:103BF00004931B5B40F2E074009492B2FDF723F84B
:103C0000039A0498059912885200805A0880FFE7A9
:103C10000E98401C0EA90880CFE70EA9012008804D
:103C2000FFE70EA8008863280FDCFFE70EA80188D5
:103C300014484A001018801E008816498852FFE771
:103C40000E98401C0EA90880EBE70A980E490291D5
:103C5000FCF7FCFA02990D4A10600998FCF7F6FA95
:103C60000B490860FEF7B6FCFCF72EFFFFE710B02B
:103C700010BDC046003C1C46E7030000E0070020E2
:103C800085030000401000200000A04138100020F3
:103C90003C100020081100201000002048E19A3F4D
:103CA0000D00002082B0014601A801705D4A116834
:103CB0004CF20003994311605B4A11685B4B194059
:103CC000116000780090092800D9A7E000998A00C7
:103CD00001A080188746C04600F012B800F01CB85A
:103CE00000F026B800F02EB800F03BB800F046B85F
:103CF00000F056B800F061B800F071B800F07CB880
:103D0000494908680122120490430860086840F29B
:103D100000129043086082E04349086801221204BF
:103D200010430860086840F200129043086076E093
:103D30003C49086808603C49086840F2001210439A
:103D400008606CE037490868086037490868012254
:103D5000D20710430860086840F200121043086060
:103D60005DE03049086844F20002104308602E49C3
:103D7000086840F200121043086050E029490868C2
:103D800044F2000210430860274908680122D20764
:103D900010430860086840F20012104308603EE0DB
:103DA0002049086848F20002104308601E4908686C
:103DB00040F200121043086031E01A49086848F2E6
:103DC000000210430860184908680122D207104316
:103DD0000860086840F20012104308601FE01149B3
:103DE00008684CF20002104308600F49086840F26E
:103DF00000121043086012E00A4908684CF2000201
:103E000010430860084908680122D207104308607F
:103E1000086840F200121043086000E0FFE702B0BB
:103E20007047C0460410024030100240FFFEFE7F83
:103E300081B001466846018000881F22014611407A
:103E400001238B408109154A88581843885001B0D6
:103E50007047C04681B001466846018000881F2235
:103E60000146114001238B4081090C4A8858984330
:103E7000885001B07047C04681B001466846018055
:103E800000881F220146114001238B408109034A0B
:103E900088581843885001B07047C046001002404F
:103EA00081B06946087000980149087001B07047F8
:103EB0000400002081B0694608700098014908702C
:103EC00001B070470500002081B069460880009865
:103ED0000149088001B070471C10002081B069467C
:103EE000087000980149087001B070470600002072
:103EF00080B582B0014601A801800199044A118071
:103F000002881C48002100F009FD02B080BDC046B7
:103F10000800002080B582B0014601A80180019907
:103F2000034A11800188134800F09BFA02B080BD5B
:103F30000A00002080B582B0014601A80170007817
:103F4000012807D1FFE70B4800F0EFFD0A490120E7
:103F500008700CE001A80078022807D1FFE70548A7
:103F600000F0DAFD044902200870FFE7FFE702B025
:103F700080BDC046004001400C00002081B0694671
:103F8000087000980149087001B070470D000020CA
:103F900081B06946087000980149087001B0704707
:103FA0000E00002081B06946088000980149088011
:103FB00001B07047D411002081B0009000990868CA
:103FC00040221043086001B07047000084B00390A5
:103FD00002A8018003988F49884205D1FFE702A813
:103FE00000880399C86015E00398406841F2000119
:103FF00008400090009838B1FFE703980C3001901A
:1040000002980199087004E002A800880399C8602A
:10401000FFE7FFE704B0704780B584B003900398D2
:1040200002902E4988420ED0FFE7029879498842D3
:1040300011D1FFE740F20C300190FFF71DFF01980E
:10404000FFF708FF08E005480090FFF715FF00980C
:10405000FFF700FF00E0FFE704B080BD0E040000A2
:1040600083B001900091019880680099084204D0C3
:10407000FFE702A9012008702BE001981749884248
:1040800023D1FFE7009870B9FFE701988068C0046A
:10409000800F20B1FFE702A90020087019E002A9F3
:1040A0000120087015E0009870B9FFE7019880685A
:1040B0004005800F20B1FFE702A90020087008E04A
:1040C00002A90120087004E0FFE702A9002008709F
:1040D000FFE702A8007803B07047C04600380040F0
:1040E00086B0049003910020029001900090049803
:1040F00000680290029843F2400108400290049840
:1041000000680190019843F640010840019004982E
:104110004068009000983E490840009004983D494E
:1041200088423DD1FFE70398016802980843029056
:10413000039841680298084302900398C168029866
:10414000084302900398016902980843029003987B
:1041500041690298084302900398816902980843D4
:1041600002900398806840F2007188420BD0FFE70C
:104170000398806840F60071884204D0FFE705A9E3
:104180000020087040E00398816840F6000001407C
:10419000029808430290FFE702980499086029E01A
:1041A00003980168019808430190039841680198B9
:1041B000084301900398C16801980843019003984F
:1041C00001690198084301900398416901980843E7
:1041D000019003988169019808430190019804991E
:1041E000086003988168009808430090009804993B
:1041F0004860FFE70499C86940F600029043C8612F
:1042000005A901200870FFE705A8007806B07047EF
:10421000FFF000000030014081B0009000990020C4
:10422000086000994860009A40F20071916000991E
:10423000C86000990861009948610099886101B0DF
:104240007047000085B00A4604A9087003A80270F0
:1042500002789207130F0F229A40D24302920978F4
:1042600002789207120F9140019100788008009027
:10427000032835D800998A0001A080188746C046D7
:1042800000F006B800F00EB800F016B800F01EB846
:10429000029A1849086810400860019A086810439B
:1042A00008601EE0029A1249086810400860019AEE
:1042B00008681043086014E0029A0C49086810402E
:1042C0000860019A0868104308600AE0029A0649EB
:1042D000086810400860019A08681043086000E010
:1042E000FFE705B07047C0461400014010000140D0
:1042F0000C0001400800014084B0002003900290AF
:10430000314908680122120410430860FFE703984E
:10431000401C03902C480068012149040840029089
:10432000FFE702990020019039B9FFE70398274978
:10433000401A411E88410190FFE70198C0070028FC
:10434000E5D1FFE7204800688003002802D4FFE79A
:10435000FFE7FEE71E49086802221043052290434A
:1043600008601C49009108680860086808600868CF
:1043700008600868184A1040086008681D22120486
:1043800010430860104908680122120610430860B3
:10439000FFE70D4800688001002801D4FFE7F8E737
:1043A0000C49086803229043086008680222104301
:1043B0000860FFE7074800680C210840082801D082
:1043C000FFE7F7E704B0704700100240FFFF00006E
:1043D0000020024004100240FFFFC27780B5FFF7C3
:1043E0008BFF80BD81B000900098042806D1FFE7C4
:1043F0000649086804221043086005E0034908687C
:10440000042290430860FFE701B0704710E000E02D
:1044100080B50420C043FFF7E5FF08480068FBF7BC
:104420007AFF0749FBF712FF014606480160006862
:104430000549FBF7CEFE0549086080BD000000205D
:104440000024F44ABC0F002000007A44B80F00207A
:1044500081B000900099086880221043086001B084
:10446000704782B001906846018000880199C86257
:1044700002B0704784B0039002A80180002101912E
:104480000088009003281DD800998A0001A0801898
:104490008746C04600F006B800F008B800F00AB839
:1044A00000F00CB80398406B01900CE00398806B0F
:1044B000019008E00398C06B019004E00398006C41
:1044C000019000E0FFE7019804B0704784B00390CA
:1044D00002A8018001A90A8000880090032841D821
:1044E00000998A0001A080188746C04600F006B8EF
:1044F00000F010B800F01CB800F026B803998869E5
:104500000C229043886101A80288039988691043AE
:10451000886128E00399886940F6004290438861E9
:1045200001A80088020203998869104388611AE093
:104530000399C8690C229043C86101A802880399B5
:10454000C8691043C8610EE00399C86940F600428B
:104550009043C86101A8008802020399C86910430A
:10456000C86100E0FFE704B0704781B00090009997
:1045700000200880009A01215180009988800099CC
:10458000C88001B07047000084B0039002A8018089
:10459000019200880090032800D964E100998A0004
:1045A00001A080188746C04600F006B800F063B846
:1045B00000F0CBB800F023B90399086A01229043B8
:1045C00008620399886903229043886101980288F0
:1045D0000399086A104308620399086A022290430B
:1045E0000862019882880399086A10430862039858
:1045F0009E4988420FD0FFE703989D4988420AD020
:10460000FFE703989B49884205D0FFE703989A4942
:1046100088422FD1FFE70399086A04229043086279
:10462000019842880399086A104308620399086A4E
:104630000822904308620198C2880399086A1043CF
:1046400008620399486840F200129043486001985C
:10465000028903994868104348600399486840F20A
:1046600000229043486001984289039948681043AA
:104670004860FFE7F8E00399086A10229043086257
:104680000399886940F2003290438861019800885C
:1046900002010399086A104308620399086A2022FC
:1046A000904308620198808802010399086A1043C8
:1046B000086203986D49884233D1FFE70399086A7D
:1046C0004022904308620198408802010399086AD9
:1046D000104308620399086A802290430862019897
:1046E000C08802010399086A104308620399486868
:1046F00040F200429043486001980089820003998B
:104700004868104348600399486840F600029043A7
:1047100048600198408982000399486810434860C6
:10472000FFE70398F64988420ED1FFE703994868EE
:1047300040F200429043486001980089820003994A
:10474000486810434860FFE78EE00399086A40F22A
:104750000012904308620399C86903229043C8611C
:104760000198008802020399086A104308620399BD
:10477000086A40F200229043086201988088020291
:104780000399086A104308620398DC49884235D1CE
:10479000FFE70399086A40F20042904308620198DB
:1047A000408802020399086A104308620399086A64
:1047B00040F60002904308620198C0880202039903
:1047C000086A104308620399486841F20002904366
:1047D00048600198008902010399486810434860C5
:1047E0000399486842F2000290434860019840896A
:1047F00002010399486810434860FFE734E00399D9
:10480000086A41F20002904308620399C86940F2C5
:1048100000329043C8610198008802030399086A36
:10482000104308620399086A42F20002904308624A
:104830000198808802030399086A1043086203986C
:10484000F74988420ED1FFE70399486844F2000215
:104850009043486001980089820103994868104399
:104860004860FFE700E0FFE704B07047002C01401C
:1048700000400140004401400048014084B00390E2
:1048800002A8018001A90A8000880090032841D86D
:1048900000998A0001A080188746C04600F006B83B
:1048A00000F010B800F01CB800F026B80399886931
:1048B00070229043886101A8028803998869104397
:1048C000886128E00399886947F200029043886173
:1048D00001A80088020203998869104388611AE0E0
:1048E0000399C86970229043C86101A8028803999E
:1048F000C8691043C8610EE00399C86947F2000215
:104900009043C86101A8008802020399C869104356
:10491000C86100E0FFE704B07047000084B0039076
:1049200002A8018001920088009003281CD80099F9
:104930008A0001A08018874600F006B800F008B889
:1049400000F00AB800F00CB80198039948630CE035
:1049500001980399886308E001980399C86304E00B
:1049600001980399086400E0FFE704B07047000075
:1049700084B0039002A8018001A90A8000880090F9
:10498000032841D800998A0001A080188746C046B4
:1049900000F006B800F010B800F01CB800F026B81F
:1049A0000399886908229043886101A802880399C5
:1049B00088691043886128E00399886940F60002FD
:1049C0009043886101A80088020203998869104316
:1049D00088611AE00399C86908229043C86101A858
:1049E00002880399C8691043C8610EE00399C86939
:1049F00040F600029043C86101A8008802020399B2
:104A0000C8691043C86100E0FFE704B0704781B097
:104A100000900099002008800099488000998880C3
:104A20000099C880009908810099488101B07047B9
:104A300080B58AB00990099808907A49884226D0B2
:104A4000FFE708982C49884229D0FFE70898764963
:104A500088422CD0FFE70898714988420FD0FFE7C1
:104A60000898724988422BD0FFE70898704988421D
:104A70002FD0FFE708986F49884232D039E02548A7
:104A80000790FFF7F9F90798FFF7E4F932E02048BB
:104A90000690FFF7F1F90698FFF7DCF92AE01B48CA
:104AA0000590FFF7E9F90598FFF7D4F922E040F205
:104AB00008400490FFF7E0F90498FFF7CBF919E0FC
:104AC00040F210300390FFF7D7F90398FFF7C2F9CF
:104AD00010E00D480290FFF7CFF90298FFF7BAF9FE
:104AE00008E008480190FFF7C7F90198FFF7B2F90D
:104AF00000E0FFE70AB080BD00100040002C01403C
:104B000000400140120300001103000004040000F3
:104B1000010400000B03000081B0009000990868B8
:104B200001229043086001B0704781B00090009965
:104B3000086801221043086001B0704782B00190FC
:104B40000091009800880199886201983449884250
:104B500005D0FFE701983349884212D1FFE7019958
:104B6000086870229043086000984288019908689C
:104B70001043086000988288019908681043086013
:104B8000FFE7009880680199C8620198244988422B
:104B900019D0FFE701982349884214D0FFE7019814
:104BA000214988420FD0FFE70198204988420AD066
:104BB000FFE701981E49884205D0FFE701981D498B
:104BC00088420DD1FFE70199086840F20032904316
:104BD00008600098C2880199086810430860FFE7E0
:104BE00001980F4988420FD0FFE701980F4988428A
:104BF0000AD0FFE701980E49884205D0FFE70198E7
:104C00000C49884205D1FFE70098007B01990863B1
:104C1000FFE70199486901221043486102B07047DB
:104C2000002C0140000400400020004000400140F2
:104C3000004401400048014080B584B0039002A8C0
:104C40000180019200880090032800D9C9E00099F2
:104C50008A0001A08018874600F006B800F030B83E
:104C600000F05EB800F08BB80399086A0122904307
:104C700008620399086A0A23984308620198038826
:104C80000399086A184308620399886903239843C3
:104C9000886101984388039988691843886103995A
:104CA0008869F023984388610198C08803010399BB
:104CB0008869184388610399086A1043086291E083
:104CC0000399086A1022904308620399086AA02396
:104CD000984308620198008803010399086A184301
:104CE00008620399886940F200339843886101980B
:104CF0004088030203998869184388610399886989
:104D00004FF20003984388610198C0880303039918
:104D10008869184388610399086A1043086261E052
:104D20000399086A40F20012904308620399086AE6
:104D300040F6002398430862019800880302039913
:104D4000086A184308620399C86903239843C86135
:104D5000019843880399C8691843C8610399C869D1
:104D6000F0239843C8610198C08803010399C8697A
:104D70001843C8610399086A1043086232E0039936
:104D8000086A41F20002904308620399086A4AF2F5
:104D90000003984308620198008803030399086A96
:104DA000184308620399C86940F200339843C86108
:104DB0000198408803020399C8691843C8610399A0
:104DC000C8694FF200039843C8610198C088030383
:104DD0000399C8691843C8610399086A10430862B7
:104DE00000E0FFE7039802A90988019A9288FFF77B
:104DF0006DFB04B080BD82B001900091009A0199D2
:104E0000C8681043C86002B0704782B0019000913A
:104E10000098C0430199086102B0704784B00290C5
:104E200001910298C06801990840009002980069B9
:104E30000199084207D0FFE7009820B1FFE703A9D6
:104E40000120087003E003A900200870FFE703A811
:104E5000007804B0704784B0009101460098039137
:104E600002A9088001A802700988039A916200785B
:104E7000012806D1FFE703994869012210434861E0
:104E8000FFE704B0704782B0019068460170007877
:104E9000012807D1FFE70199486C48F2000210434E
:104EA000486406E00199486C48F200029043486467
:104EB000FFE702B07047000081B000900099002029
:104EC00008800099488000998880009A0349916081
:104ED0000099C8800099087301B07047FFFF000077
:104EE0000FB410B504A9074B02AA039800F0ECF820
:104EF000044602A9002000F083FC204610BC08BC38
:104F000004B01847015800082021020C01D01021DC
:104F10001046020A01D010460839020901D0104695
:104F2000091F820801D01046891E420801D0881E40
:104F30007047081A704702E008C8121F08C1002A0B
:104F4000FAD170477047002001E001C1121F002A0A
:104F5000FBD17047F0B51FB486B00998089A030DCD
:104F60000021024314D05148514A181850430514E7
:104F70001198012810981AD0281A401C00264D4F6D
:104F80004D49009601910490002812DA444211E044
:104F90001198012449A3012801D11098C143069812
:104FA000119A84600360C26041600BB0F0BD404262
:104FB000E4E70446210500203F4A001C51410391CB
:104FC000029012E0E00707D032463B460199009874
:104FD000FBF70CFB0191009032463B461046194608
:104FE000FBF704FB06460F466410002CEAD1049838
:104FF000039B0028029A0999089806DAFBF7F6FA4B
:10500000019B009AFBF7F2FA05E0FBF757FB019BC7
:10501000009AFBF753FB04460E460022284BFBF791
:10502000E5FB03D80020C043014607E00022254BE2
:1050300020463146FBF728FAFBF7B8FB102409E0BD
:10504000002C0ADB0A220023FBF7ADF9079B303264
:105050001A55641E02460A43F2D11122641C079BB2
:10506000121B1C19119B012B03D0012308430ED1E5
:105070000AE0084304D0112010900020119077E737
:105080001098151A6D1E0BE01098824202DD002365
:105090006D1C03E0824201DA00236D1E002BEED06E
:1050A000069811998260C16030C07EE701FCFFFF65
:1050B000104D0000000014400000F03F30000000E0
:1050C0000000F0430000E03FFFB597B00646002522
:1050D00018E2252877D100242746FD49049400E0F2
:1050E0000443761C32780120203A90400842F7D1E0
:1050F00030782A280ED0022230780146303909292A
:1051000016D804990A235943303940181443761CA1
:105110000490F1E7189802C804911890002904DA65
:105120000120400304434842049002200443761CBB
:1051300030782E2814D1042004437078761C2A2855
:1051400009D11898761C80C8189009E00A214F43AD
:10515000303FC719761C3078014630390929F5D916
:1051600030786C2810D006DC4C281AD068280ED075
:105170006A2817D104E0742813D07A2812D110E0DD
:105180000120400504430CE00121090501E0032151
:1051900009050C437178814203D1012000052418D0
:1051A000761C761C3078119066280BD013DC5828BA
:1051B0007DD009DC00287BD04528F6D04628F4D0E5
:1051C00047281AD1A5E118E0632835D0642870D0AB
:1051D000652812D19DE170286CD008DC6728F1D0D9
:1051E00069287BD06E280DD06F2806D1BAE07328CD
:1051F0002ED0752871D0782859D01A9A19999047CD
:105200006D1C7EE16002400F022809D003280DD0FA
:105210000428189801680DD00D60001D189070E1E9
:105220001898EA1701680D604A60F6E71898016857
:105230000D80F2E70D70F0E718986A460178117258
:10524000001D18900020507202A80090012005E077
:10525000189802C8189000200091C04361070DD52E
:10526000002101E00199491C0191B94212DA814201
:10527000F8DB009A515C0029F4D10BE0002101E039
:105280000199491C01918142FADB019A0099895CDC
:105290000029F5D1019904981A9B471A21463846EE
:1052A000199A00F097FA0199401945180BE04FE060
:1052B0002CE113E04EE0009800990078491C009121
:1052C0001A9A199990470198401E0190401CF2D1FA
:1052D000214638461A9B199A10E137E00A2000212E
:1052E000009001916002410F022907D0189A01CA6B
:1052F0001892C2179446032908D00AE01898C01DD6
:10530000C108C90005C91891944607E000B2C21748
:105310009446042902D140B2C1178C46002261464E
:10532000944506DA0A460021404291418C462D21DF
:1053300002E0210504D52B216A461173012103E007
:10534000E10701D02021F7E7029155E00A200AE0A9
:10535000102008E010200090002104200443019157
:10536000082703E008200021019100906002410F0E
:10537000022907D0189A01CA1892002294460329DC
:1053800008D008E01898C01DC108C90005C91891C7
:10539000944603E080B2042900D1C0B200210291FA
:1053A000210729D51199702906D0009A1021019B57
:1053B0004A401A4305D00EE040216A46117301218C
:1053C00008E06146014306D030216A461173119905
:1053D000517302210291009A0821019B4A401A430D
:1053E0000AD16146014301D1610705D530216A46E2
:1053F000117301217F1E02911199582904D035A102
:105400000E910DA90D910DE037A1F9E76146019BC1
:10541000009AFAF7C8FF0E9B8C469B5C0D9A521EB1
:105420000D92137061460143F0D10D9805A9081A39
:1054300020300190600703D501200004844300E080
:1054400001270198874201DD381A00E00020019908
:1054500000904118029809180498401A0490E0033B
:1054600006D421461A9B199A049800F0B3F94519FD
:10547000002706E003A81A9AC05D199990476D1C91
:105480007F1C02988742F5DBE0030CD521461A9B6E
:10549000199A049800F09EF9451904E01A9A3020F0
:1054A000199990476D1C0099481E00900029F5DC61
:1054B00008E00D980D990078491C0D911A9A1999D8
:1054C00090476D1C0199481E01900029F1DC63E1B1
:1054D00009280100303132333435363738396162CA
:1054E000636465660000000030313233343536378E
:1054F00038394142434445460000000000F05AF963
:105500004519761C3078002800D0E2E528461BB00B
:10551000F0BD600700D406271898C01DC108C90057
:1055200048680A680831C30FDB071891190001D0D9
:105530009CA108E0210501D59BA104E0E10701D071
:105540009AA100E09AA1430011985B081091652888
:105550000CD006DC452809D046281DD0472841D16B
:1055600041E0662818D067283CD13CE00021112F8B
:1055700001DB112000E0781C0191009008A911A81E
:10558000FFF7E8FC139905910021119A15927F1CF1
:1055900012980197009150E00120C007039001206C
:1055A000019008A9009711A8FFF7D4FC139A149949
:1055B00005920022119B009212981593059A019270
:1055C000002901D0104602E0791C40180190381AD9
:1055D00001D5019804E04042401E0090781C0190E3
:1055E000C01B029043E0012F00DA01270021112F98
:1055F00001DD112000E038460191009008A911A8B2
:10560000FFF7A8FC13990591119A002112981592A1
:105610000091019721070CD40599B94201DB01994A
:1056200000E00191012904DD159A491E515C3029E1
:1056300006D0B84201DA011D05DA0121029115E018
:105640000199491EEDE7002805DC009941180091F9
:105650000199091A03E0019A411C914200DD019170
:105660000099401A401C02900120C00703902007B7
:1056700006D402990198814202DB0020C0430290C7
:1056800000206946C87707AF012103980337C9078F
:10569000884224D0022011902B20129003980028D9
:1056A0000CDA404203902D20129007E00A21039863
:1056B000FBF7C2F830317F1E039039701199481EF4
:1056C00011900029F2DC03980028EFD1791E12987E
:1056D00008703078202108404530BF1E387006A879
:1056E000C01BC01D039010980078002800D0012036
:1056F000019941180298C0170918039809180498CD
:10570000401A401E0490E00306D421461A9B199AC1
:10571000049800F05FF8451910980078002803D02D
:105720001A9A199990476D1CE00324D521461A9BBB
:10573000199A049800F04EF845191CE000980028CA
:1057400007DB00990598884203DD1598405C19999C
:1057500001E0199930201A9A904700986D1C401C5E
:1057600000900298401E0290002804D11A9A2E2020
:10577000199990476D1C0199481E01900029DDDCA4
:1057800005E038781A9A7F1C199990476D1C039987
:10579000481E03900029F4DC21461A9B199A0498AC
:1057A000ACE600002D0000002B00000020000000EF
:1057B00000000000F8B5044600251E461746880480
:1057C00004D405E039462020B0476D1C641EF9D58D
:1057D0002846F8BDFFB50446002581B01E46C80323
:1057E00001D5302700E02027880404D505E038469D
:1057F0000399B0476D1C641EF9D5284605B0F0BD6D
:105800000A68531C0B601070704700000000000015
:105810000000000000000000000000000008080870
:105820000808080800001818000000486C2412003E
:1058300000000000000000000000000000242424FC
:105840007F1212127F12121200000000081C2A2A76
:105850000A0C1828282A2A1C0808000000222515EE
:1058600015152A585454542200000000000C12123E
:10587000120A76252911916E000000060604030025
:105880000000000000000000000000402010100890
:10589000080808080810102040000002040808103A
:1058A0001010101010080804020000000000080882
:1058B0006B1C1C6B080800000000000000000808BA
:1058C00008087F0808080800000000000000000029
:1058D00000000000000006060403000000000000B5
:1058E0000000FE00000000000000000000000000BA
:1058F000000000000000060600000000804040207C
:1059000020101008080404020200000000182442BD
:1059100042424242424224180000000000080E08A1
:10592000080808080808083E00000000003C424241
:10593000422020100804427E00000000003C424249
:10594000201820404042221C000000000020302887
:10595000242422227E20207800000000007E020203
:10596000021A26404042221C000000000038240297
:10597000021A26424242241800000000007E222221
:10598000101008080808080800000000003C424207
:10599000422418244242423C0000000000182442E5
:1059A000424264584040241C0000000000000000F7
:1059B0001818000000001818000000000000000087
:1059C000000800000000000808040000004020104B
:1059D000080402040810204000000000000000003D
:1059E0007F0000007F0000000000000000020408AB
:1059F000102040201008040200000000003C424239
:105A0000464020101000181800000000001C225A08
:105A1000555555552D42221C00000000000808185D
:105A20001414243C224242E700000000001F2222FE
:105A3000221E22424242221F00000000007C4242FD
:105A4000010101010142221C00000000001F22424E
:105A5000424242424242221F00000000003F4212E6
:105A6000121E12120242423F00000000003F42128A
:105A7000121E12120202020700000000003C222245
:105A8000010101712122221C0000000000E74242B6
:105A900042427E42424242E700000000003E0808C7
:105AA000080808080808083E00000000007C1010E4
:105AB0001010101010101010110F0000007722129B
:105AC0000A0E0A12122222770000000000070202CA
:105AD000020202020202427F000000000077363616
